:100000000C945D000C9485000C9485000C94850084
:100010000C9485000C9485000C9485000C9485004C
:100020000C9485000C9485000C9485000C9485003C
:100030000C9485000C9485000C9485000C9485002C
:100040000C94EB0C0C9485000C945B0D0C94350D0A
:100050000C9485000C9485000C9485000C9485000C
:100060000C9485000C94850000000008000201003B
:100070000003040700000000000000000000000072
:10008000250028002B0000000000240027002A0083
:10009000040404040404040402020202020203032E
:1000A0000303030301020408102040800102040836
:1000B00010200102040810208D0D11241FBECFEF67
:1000C000D8E0DEBFCDBF11E0A0E0B1E0E6E5F7E2A9
:1000D00002C005900D92AA35B107D9F722E0AAE532
:1000E000B1E001C01D92A438B207E1F710E0CDE500
:1000F000D0E004C02197FE010E949E13CC35D107A9
:10010000C9F70E94CD0D0C94A9130C940000E8ECE3
:10011000F1E0DC012D913D914C912193319341937C
:10012000B1E0EA3DFB07A9F7089590E0FC01EC552A
:10013000FF4F249180579F4FFC018491882399F0B1
:1001400090E0880F991FFC01EA57FF4FA591B491E9
:10015000FC01E458FF4F859194918FB7F894EC918E
:10016000E22BEC938FBF089590E0FC01E859FF4F1C
:100170002491FC01EC55FF4F3491FC01E057FF4FF7
:10018000E491EE23C9F0222339F0233001F1A8F4E1
:10019000213019F1223029F1F0E0EE0FFF1FE45871
:1001A000FF4FA591B4918FB7F894EC91611126C0DF
:1001B00030953E233C938FBF08952730A9F0283017
:1001C000C9F0243049F7809180008F7D03C0809171
:1001D00080008F7780938000DFCF84B58F7784BDD8
:1001E000DBCF84B58F7DFBCF8091B0008F7780937C
:1001F000B000D2CF8091B0008F7DF9CF3E2BDACF07
:100200008230910538F0880F991F880F991F059744
:100210000197F1F708953FB7F8948091C401909148
:10022000C501A091C601B091C70126B5A89B05C024
:100230002F3F19F00196A11DB11D3FBFBA2FA92F65
:10024000982F8827BC01CD01620F711D811D911D62
:1002500042E0660F771F881F991F4A95D1F70895CE
:100260002FB7F8946091C0017091C1018091C201D3
:100270009091C3012FBF089580E991E00895AF9256
:10028000BF92CF92DF92EF92FF920F931F93CF9383
:10029000DF936C017B018B01040F151FEB015E01E5
:1002A000AE18BF08C017D10759F06991D601ED917A
:1002B000FC910190F081E02DC6010995892B79F719
:1002C000C501DF91CF911F910F91FF90EF90DF90CB
:1002D000CF90BF90AF900895FC01538D448D252F92
:1002E00030E0842F90E0821B930B541710F0CF96D0
:1002F000089501970895FC01918D828D981761F002
:10030000A28DAE0FBF2FB11D5D968C91928D9F5F18
:100310009F73928F90E008958FEF9FEF0895FC01F7
:10032000918D828D981731F0828DE80FF11D858DAA
:1003300090E008958FEF9FEF0895FC01918D228D3D
:10034000892F90E0805C9F4F821B91098F739927C2
:1003500008958AED91E00E949D0121E0892B09F426
:1003600020E0822F089580E090E0892B29F00E9400
:10037000A90181110C9400000895FC01A48DA80F1F
:10038000B92FB11DA35ABF4F2C91848D90E00196D7
:100390008F739927848FA689B7892C93A089B189F7
:1003A0008C91837080648C93938D848D981306C098
:1003B0000288F389E02D80818F7D80830895EF92FC
:1003C000FF920F931F93CF93DF93EC0181E0888F0F
:1003D0009B8D8C8D98131AC0E889F989808185FFDF
:1003E00015C09FB7F894EE89FF896083E889F98981
:1003F00080818370806480839FBF81E090E0DF9183
:10040000CF911F910F91FF90EF900895F62E0B8DD5
:1004100010E00F5F1F4F0F731127E02E8C8D8E1190
:100420000CC00FB607FCFACFE889F989808185FFF7
:10043000F5CFCE010E94BD01F1CFEB8DEC0FFD2F6A
:10044000F11DE35AFF4FF0829FB7F8940B8FEA89B2
:10045000FB8980818062CFCFCF93DF93EC01888DC1
:100460008823B9F0AA89BB89E889F9898C9185FD2F
:1004700003C0808186FD0DC00FB607FCF7CF8C91BD
:1004800085FFF2CF808185FFEDCFCE010E94BD01B7
:10049000E9CFDF91CF910895FC018081869F080EFE
:1004A00080E0811D80838181869F080E80E0811D10
:1004B00081838281869F080E80E0811D82831124C2
:1004C000CF010895AF92BF92CF92DF92EF92FF9249
:1004D0000F931F93CF93DF9300D01F92CDB7DEB75A
:1004E0005A0119821A821B82882361F18B01E1E093
:1004F000F0E0E82EF12CD8012D918D012223F1F0AE
:100500006F01B1E0CB1AD108D501AC0DBD1D4C91E6
:100510004423A1F030E02F5F3F4FD7010E945813D2
:10052000A42FB0E011969B01AC010E942313A1E01F
:10053000B0E0AC0FBD1FAC0DBD1D8C933196E43007
:10054000F105C9F669817A818B810F900F900F9028
:10055000DF91CF911F910F91FF90EF90DF90CF909F
:10056000BF90AF90089581E090E008950F931F939E
:10057000CF93DF9320917C012F5F322F3770309320
:100580007C0120FF2BC020E831FD2064347009F08D
:100590002062205FFC01EC01239600E011E06785FA
:1005A000662329F070E0C8010E947B136F5F6187AA
:1005B000822F869F080E80E0811D1124811110C0BA
:1005C0001682662311F0615061873196EC17FD07A2
:1005D00031F7DF91CF911F910F91089520E0D4CF93
:1005E00081508683EECF4F925F927F928F929F923F
:1005F000AF92BF92CF92DF92EF92FF920F931F9331
:10060000CF93DF932C01EB010E940B01F2012689AD
:100610003789621B730B6A307105B0F3F8948A81D5
:100620009B81181619060CF0CBC1E881F98105B140
:10063000086075B1777F75B9BA848F812B2D281B1F
:10064000822F2F834C85042E000C550BAA81BB8171
:10065000E888DF84C988E394D394C3949E81388565
:1006600099848B84118120E0F32E622F322F318107
:10067000112788943111380F08F43FEF8195889441
:10068000E0FC130F17958894E1FC130F17958894DD
:10069000E2FC130F17958894E3FC130F17958894C9
:1006A000E4FC130F17958894E5FC130F17958894B5
:1006B000E6FC130F17958894E7FC130F17958894A1
:1006C000232FE110212F8B0D122F002C05B900C014
:1006D00017FF75B930812227889400C000C0002C14
:1006E00075B93111390F00C0002C05B900C016FFD3
:1006F00075B908F43FEF9195889400C000C0002CB4
:1007000075B9D0FC230F00C0002C05B900C015FF3F
:1007100075B927958894D1FC230F00C000C0002C28
:1007200075B92795889400C0002C05B900C014FF46
:1007300075B9D2FC230F2795889400C000C0002C07
:1007400075B9D3FC230F00C0002C05B900C013FFFE
:1007500075B927958894D4FC230F00C000C0002CE5
:1007600075B92795889400C0002C05B900C012FF08
:1007700075B9D5FC230F2795889400C000C0002CC4
:1007800075B9D6FC230F00C0002C05B900C011FFBD
:1007900075B927958894D7FC230F00C000C0002CA2
:1007A00075B92795889400C0002C05B900C010FFCA
:1007B00075B9132FD110122F990D00C000C0002C55
:1007C00075B900C000C0002C05B900C017FF75B98D
:1007D00032812227889400C000C0002C75B93111E5
:1007E0003F0D00C0002C05B900C016FF75B908F414
:1007F0003FEFE40FF51F00C000C0002C75B9C0FC2E
:10080000230F00C0002C05B900C015FF75B927954E
:100810008894C1FC230F00C000C0002C75B9279537
:10082000889400C0002C05B900C014FF75B9C2FC43
:10083000230F2795889400C000C0002C75B9C3FC15
:10084000230F00C0002C05B900C013FF75B9279510
:100850008894C4FC230F00C000C0002C75B92795F4
:10086000889400C0002C05B900C012FF75B9C5FC02
:10087000230F2795889400C000C0002C75B9C6FCD2
:10088000230F00C0002C05B900C011FF75B92795D2
:100890008894C7FC230F00C000C0002C75B92795B1
:1008A000889400C0002C05B900C010FF75B9132F43
:1008B000C110122FF19400C000C0002C75B9F80CC3
:1008C00000C000C005B900C017FF75B931812227EB
:1008D000889400C000C0002C75B93111380F00C0D9
:1008E000002C05B900C016FF75B908F43FEF8195DB
:1008F000889400C000C0002C75B9E0FC230F00C034
:10090000002C05B900C015FF75B927958894E1FC46
:10091000230F00C000C0002C75B92795889400C033
:10092000002C05B900C014FF75B9E2FC230F279510
:10093000889400C000C0002C75B9E3FC230F00C0F0
:10094000002C05B900C013FF75B927958894E4FC05
:10095000230F00C000C0002C75B92795889400C0F3
:10096000002C05B900C012FF75B9E5FC230F2795CF
:10097000889400C000C0002C75B9E6FC230F00C0AD
:10098000002C05B900C011FF75B927958894E7FCC4
:10099000230F00C000C0002C75B92795889400C0B3
:1009A000002C05B900C010FF75B9132FE110122FEC
:1009B0008B0D00C000C0002C75B9119709F086CED0
:1009C000EA81FB812EE130E0DF010E94971330E0E5
:1009D00020E0A901AAE9EA9F0E0E411DFA9F400DF1
:1009E000511D11244F0F511DDC01CB01840F951FA8
:1009F000A11DB11D893E43E09407A105B10508F48E
:100A000034C0885E9340A109B10942E0B695A7952C
:100A1000979587954A95D1F747E0849F080E211D49
:100A2000949F200D311D1124290F311D60917B01F0
:100A300070E0860F971F820F931F4091C001509165
:100A4000C1016091C2017091C301292F3327420F68
:100A5000531F611D711D4093C0015093C1016093EC
:100A6000C2017093C30180937B0178940E940B01B3
:100A7000F201778B668BDF91CF911F910F91FF90E1
:100A8000EF90DF90CF90BF90AF909F908F907F902E
:100A90005F904F900895239A08956F927F928F925E
:100AA000CF92DF92EF92FF920F931F93CF93DF933A
:100AB000CDB7DEB762970FB6F894DEBF0FBECDBFDD
:100AC0008C016B017A01822FA801475F5F4FB8014B
:100AD0006A5F7F4F0E9462023B01882ED8011C96FC
:100AE0002C91C701F7FE04C0882799278E199F090A
:100AF000DA82C9829C838B839E838D83688A798AFC
:100B00008A8A213049F5CE0101960E94B60283E01F
:100B10008D871F861E86F7FE02C08DEF8D87D80158
:100B2000ED91FC910088F189E02DBE016F5F7F4F50
:100B3000C801099562960FB6F894DEBF0FBECDBF0F
:100B4000DF91CF911F910F91FF90EF90DF90CF90A9
:100B50008F907F906F9008951C861B861A86198649
:100B600018861F82D4CFCF92DF92EF92FF920F931D
:100B70001F93CF93DF93CDB7DEB762970FB6F8948C
:100B8000DEBF0FBECDBF8C016B017A01822FA801A1
:100B9000475F5F4FB8016A5F7F4F0E9462029B010F
:100BA000482FD8011C968C91DA82C982FC82EB8294
:100BB000FE82ED82288B398B4A8B813009F5CE017C
:100BC00001960E94B6021D861F861E86D801ED91F1
:100BD000FC910088F189E02DBE016F5F7F4FC80155
:100BE000099562960FB6F894DEBF0FBECDBFDF91B8
:100BF000CF911F910F91FF90EF90DF90CF900895CC
:100C00001C861B861A86198618861F82DCCF0895DB
:100C1000CF93DF938FEF809306018093070180933A
:100C200008018093090180930A0180930B012091B0
:100C3000A501C1EAD1E0AEE5B1E080E0281751F0AE
:100C4000E9919D910E2E000CFF0BEA5FFE4F908301
:100C50008F5FF4CFDF91CF910895E82F809100014D
:100C60009091010197FF04C01092A5010C94080611
:100C70004091A5018436910534F123E02093A5012C
:100C800021E020935E012AE030E0B9010E947B134D
:100C9000F82FCB01B9010E947B1380935F01F09381
:100CA00060012091A501E11102C02417F9F296E03C
:100CB000921BE1EAF1E080E02817C1F2382F390FEA
:100CC00031938F5FF9CF8A30910564F022E0209351
:100CD000A5016AE070E00E947B1360935E0180933F
:100CE0005F01DFCF91E09093A50180935E01D9CFA2
:100CF000EF92FF920F931F93CF93DF937C010FE04E
:100D000010E0C3E0D0E0B701002E02C076956795F1
:100D10000A94E2F761708EE00E94B40061E081E124
:100D20000E94B400CE010197F1F760E081E10E94DA
:100D3000B400CE010197F1F70150110920F761E0ED
:100D40008FE00E94B4002197F1F760E08FE0DF911F
:100D5000CF911F910F91FF90EF900C94B4003F92B0
:100D60004F925F926F927F928F929F92AF92BF92BB
:100D7000CF92DF92EF92FF920F931F93CF93DF9367
:100D80004B015C010E9430016B017C0190EF492E08
:100D90009AE0592E0E9430016C197D098E099F0935
:100DA000681579058A059B05C8F586E0682E81E0FF
:100DB000782EC2E4D1E0F30181913F018A3038F509
:100DC00021E030E002C0220F331F8A95E2F7C9010B
:100DD0000E947806388061E0832D0E94B400009163
:100DE000040110910501C8010E94000160E0832DFB
:100DF0000E94B40090E080E00E947806003F3AE054
:100E0000130728F4C201801B910B0E940001219658
:100E10008CE0681681E0780671F6BCCFDF91CF9147
:100E20001F910F91FF90EF90DF90CF90BF90AF9008
:100E30009F908F907F906F905F904F903F9008951C
:100E400090E080E00895FC0164870895FC018485AA
:100E500090E00895FC01868597850895FF920F9391
:100E60001F93CF93DF93EC01F62E6E857F85E8818B
:100E7000F9810284F385E02D09958C018D85882305
:100E800061F04E855F856A817B81E881F98102800E
:100E9000F381E02D2F2DCE010995E881F98104849D
:100EA000F585E02DB801CE01DF91CF911F910F9113
:100EB000FF900994CF93DF9300D01F92CDB7DEB798
:100EC00019821A821B82CE0101960E9487008091AE
:100ED00000019091010184369105B4F0198280E8F7
:100EE0008A831B82CE0101960E94870060910301D4
:100EF0008091A6019091A7010E942E070F900F905C
:100F00000F90DF91CF91089597FDF0CF489669E15A
:100F100070E00E947B13662339F080E890E0633034
:100F200030F48FEF623011F061E080E09FEFE8EC89
:100F3000F1E020E09083818312822F5F33962613A5
:100F4000F9CFD4CFCF92DF92EF92FF920F931F93FE
:100F5000CF93DF938091BA01813009F017C12091BE
:100F60006101309162012333310514F022E330E056
:100F7000A0EABFEF0E948F1322E330E040E050E090
:100F80000E940413205AD22FDD0FDD0FDD0F35E54F
:100F9000CD2FC39F0C0EC0E0C11D1124922F907461
:100FA000822F807227FD50C091113AC0811106C076
:100FB0009C2F9095FC2EC92FD0E005C035E5F32E6F
:100FC000FC0ED0E0CBEA009100011091010120E07D
:100FD00017FD0BC020E630E0D8010E94971324E6ED
:100FE00030E040E050E00E940413322F330F330F03
:100FF000330F95E5832F899F080E80E0811D112412
:10100000522F5074422F407227FD9AC0511186C052
:1010100041113CC0982F9095282F892F90E03AC01D
:1010200081110CC09AEAD99F0D0ED0E0D11D112478
:101030009BEA9D1B2AEAF22EFC0EBDCF80E0FC2E1F
:10104000F094DC2FC0E0BFCF911111C081110BC013
:101050008AEAD89F0D0ED0E0D11D11248BEAF82E1C
:10106000FD1ADB5AEFCFDC2FD095F12CACCF8111DC
:1010700006C095E59C0FDBEADC1BC92FF6CF8AEA98
:101080008C0F90E0D32FDC1BC82FEFCF25E5280F66
:1010900090E08BEAC093CE01F092CF01D093D001C3
:1010A000C090CE01D090CF01E090D001C092CB0192
:1010B000D092CC01E092CD01C092C801D092C9017A
:1010C000E092CA01043611050CF459C08093D10195
:1010D0002093D2019093D3018093D7012093D8011C
:1010E0009093D9018091D7019091D801A091D90115
:1010F0008093D4019093D501A093D6016091030110
:101100008091A6019091A701DF91CF911F910F913E
:10111000FF90EF90DF90CF900C942E0741110AC002
:101120002AEA329F030E30E0311D11249BEA931B03
:10113000280F73CF90E0282F2095982F80E0AACF1A
:10114000511111C041110BC0932F8AEA989F090ECB
:1011500090E0911D11242BEA291B9B5AEFCF982F69
:10116000909520E097CF411106C025E5280F9BEA16
:10117000981B822FF6CF2AEA280F30E0F9CF109281
:10118000D1011092D2011092D301A6CFDF91CF915D
:101190001F910F91FF90EF90DF90CF900C945A0722
:1011A000282F86FD2095E22FEF732F7086FD2F5F8D
:1011B000E695E695E695E670F0E0E05FFE4F9181FA
:1011C000929F902D212D112492959F702295207F22
:1011D000922B2081920F87FD919580E8890F0895C9
:1011E0000E94A4132F923F924F925F926F927F9230
:1011F0008F929F92AF92BF92CF92DF92EF92FF9227
:101200000F931F93CF93DF93CDB7DEB7C254D109AD
:101210000FB6F894DEBF0FBECDBF46E051E05EAF23
:101220004DAF8E010F5C1F4FD801FA0181918D9354
:1012300051E0EC30F507D1F7F12C24EF2F0DF80138
:10124000A6E0B1E08F2D87FF00C190819D93825071
:1012500031968213F8CF66E970E080E090E00E945A
:10126000AF06F39484E1F812E8CF0E9430012B011D
:101270003C01DE0111962196BFAFAEAF21976E0102
:10128000BDE3CB0ED11C46E0242E41E0342EFE01FE
:1012900079962396FFAFEEAF2397AE01495C5F4F7F
:1012A0007A015CEB852E52E0952EA12CB12CD70152
:1012B000E9E0ED937D010E94AC12A50194010E942A
:1012C000041360577E4F8F4F9F4F2196AEADBFAD39
:1012D00021976D937D938D939D932196BFAFAEAF74
:1012E0002197640D751D861D971D2396EEADFFADEC
:1012F000239761937193819391932396FFAFEEAF00
:101300002397D101E9E0ED931D01EC14FD0479F67A
:101310000E9430014B015C01FE017996AE01495CEF
:101320005F4F1A0190E080E0F12CD1012D911D0159
:10133000222371F14080518062807380841495046F
:10134000A604B70418F12150BD0161507109DB01F9
:101350002C93BC01660F771F660F771F41E050E0AA
:101360004C0F5D1F640F751FDB014D915D916D91F9
:101370007C91440D551D661D771D4083518362830A
:101380007383AC014A5F5E4FDA012C93FF24F39420
:10139000019634968630910541F66EE170E080E06A
:1013A00090E00E94AF06F110B3CF60E971E080E0F9
:1013B00090E00E94AF06F12CE12C4801B6E08B0EC4
:1013C000911CE6E0F1E05801D5018D915D018A3074
:1013D00008F041C090E0E816F9060CF4C7018193CB
:1013E0008A149B0489F760E570E080E090E00E9439
:1013F000AF06BFEFEB1AFB0AEAE0EE16F10409F7BD
:10140000D8018D918D01EDADFEAD8193FEAFEDAFB5
:10141000AA16BB06A9F7CE5BDF4F0FB6F894DEBF66
:101420000FBECDBFDF91CF911F910F91FF90EF9035
:10143000DF90CF90BF90AF909F908F907F906F90F4
:101440005F904F903F902F900895982F8A300CF422
:10145000FDCE99E0FBCE8FEFC2CF2F923F924F92FD
:101460005F926F927F928F929F92AF92BF92CF9234
:10147000DF92EF92FF920F931F93CF93DF9300D0F1
:1014800000D01F92CDB7DEB714E63AE0E32EF12C80
:1014900044E6242E312C51E4452E512C612C712C24
:1014A0008AED91E00E949D01892B09F47CC28AEDAE
:1014B00091E00E947B01E0917A018A3009F067C2D5
:1014C000AE2FB0E0AD59BE4F1C9289EF8E0F833026
:1014D00038F0EC3029F08DEE8E0F833008F095C196
:1014E000A3E6B1E08D9180538A3008F06FC189E6A0
:1014F00091E08A179B07B1F7509169018DEB850F39
:10150000823008F063C120916301022E000C330B7E
:1015100020533109129FC001139F900D1124209177
:101520006401022E000C330B205331094AE0429F24
:10153000B001439F700D1124860F971F2091650104
:10154000022E000C330B20533109820F931F853676
:10155000910514F084E690E09093010180930001DE
:10156000E83008F436C180916A0190ED980F9A3006
:1015700008F02FC1892F9CE1899F802D1124809331
:10158000030100E0E93080F101E080916B018133DB
:1015900009F000E0EC3040F120916C01022E000CCB
:1015A000330B20533109129FC001139F900D11245A
:1015B00020916D01022E000C330B205331094AE0BB
:1015C000429FB001439F700D1124860F971F2091F9
:1015D0006E01022E000C330B20533109820F931F32
:1015E000909362018093610160916601409167016F
:1015F0002091680190E080E05434F1F4062E000C54
:10160000770B60537109169FC001179F900D11242D
:10161000042E000C550B405351093AE0349FB001A1
:10162000359F700D1124860F971F022E000C330B6F
:1016300020533109820F931F9093AC018093AB012B
:10164000E33108F480C081E090916F01953409F096
:1016500080E08093AA0120917001022E000C330BD0
:1016600020533109129FC001139F900D1124209126
:101670007101022E000C330B205331094AE0429FC6
:10168000B001439F700D1124860F971F20917201A6
:10169000022E000C330B20533109820F931F9093BD
:1016A000A9018093A80120917301022E000C330B35
:1016B00020533109129FC001139F900D11242091D6
:1016C0007401022E000C330B20533109429FB001EC
:1016D000439F700D1124860F971F20917501022ED4
:1016E000000C330B20533109820F931F9093AE01EE
:1016F0008093AD01E33139F18091760190ED980F3F
:101700009A3080F4082E000C990BC0974AEF489F3E
:101710009001499F300D1124285A3D4F3093050107
:1017200020930401E43179F0809177018053853072
:1017300050F49091B501981731F08093B501811163
:1017400002C00E94A2070093BA01602F83E00E94AA
:10175000B400013009F055C08FEF809309018093E8
:101760000A0180930B012091610130916201283EB2
:1017700093E0390784F56FEF2436310524F0C90171
:10178000B1010E947B1360930601C901B7010E9459
:101790007B13282FCB01B7010E947B138093070195
:1017A0002093080120910001309101012436310578
:1017B000ACF081E08093090110920A0110920B01B4
:1017C0008091B501811102C00E94A20710927A0196
:1017D00067CE8FEFD4CE27EE33E0D1CF37FDF0CFF9
:1017E0006FEF2A30310524F0C901B7010E947B1345
:1017F00060930A01C901B7010E947B1380930B011A
:10180000DFCF80E00E942D06DBCFE13009F0AEC0D3
:1018100080916301883509F0A3C00E9430014B011B
:101820005C010E943001681979098A099B09683BAB
:101830007B408105910510F50E94300168197909F6
:101840008A099B09A30192010E943613E6E0F1E0A8
:1018500030E026503140C9018E0F9F1FB7010E9412
:101860007B1381938CE091E08E179F07A1F761E4D1
:1018700070E080E090E00E94AF06D3CF809100013D
:10188000909101019D838C83D12CC12CD0920101B8
:10189000C092000181E00E942D060E945A076DE26D
:1018A00070E080E090E00E94AF069FEFC91AD90A6D
:1018B00025E6C216D10451F760EB74E080E090E0B9
:1018C0000E94AF060E9430014B015C01DD24D394DD
:1018D00000E0CC24CA940E943001681979098A0971
:1018E0009B09683B7B408105910570F5C9821A828E
:1018F0001B82CE0101960E948700802F002E000CD3
:10190000990BFC01EE0FFF1FE80FF91FE853FE4F84
:1019100010821182C282609103018091A601909190
:10192000A7010E942E0760EA70E080E090E00E942C
:10193000AF060D0D05302CF410166CF2DD24D39497
:10194000CACFDD24DA94C7CF8C819D8190930101A9
:101950008093000181E00E942D060E945A0736CF35
:10196000833509F033CF0E94F20830CFE23009F01E
:101970002DCF80916301813409F028CF80916401DB
:101980008053853008F022CF8093B5011BCFE6311C
:1019900008F01CCF91E09E0F90937A01F0E0ED5992
:1019A000FE4F80837DCD0F900F900F900F900F9082
:1019B000DF91CF911F910F91FF90EF90DF90CF902B
:1019C000BF90AF909F908F907F906F905F904F905F
:1019D0003F902F9008951F920F920FB60F921124EF
:1019E0002F933F938F939F93AF93BF938091C001A9
:1019F0009091C101A091C201B091C3013091BF018A
:101A000023E0230F2D3758F50196A11DB11D20931A
:101A1000BF018093C0019093C101A093C201B09314
:101A2000C3018091C4019091C501A091C601B091FC
:101A3000C7010196A11DB11D8093C4019093C501FA
:101A4000A093C601B093C701BF91AF919F918F91B1
:101A50003F912F910F900FBE0F901F90189526E881
:101A6000230F0296A11DB11DD2CF1F920F920FB668
:101A70000F9211242F933F934F935F936F937F9314
:101A80008F939F93AF93BF93EF93FF938AED91E072
:101A90000E94BD01FF91EF91BF91AF919F918F91F6
:101AA0007F916F915F914F913F912F910F900FBE5A
:101AB0000F901F9018951F920F920FB60F9211243E
:101AC0002F938F939F93EF93FF93E091EA01F0910F
:101AD000EB018081E091F001F091F10182FD1BC0EA
:101AE00090818091F3018F5F8F732091F4018217B1
:101AF00041F0E091F301F0E0E652FE4F958F8093C4
:101B0000F301FF91EF919F918F912F910F900FBE55
:101B10000F901F9018958081F4CFEAEDF1E01382C9
:101B2000128288EE93E0A0E0B0E084839583A683E0
:101B3000B7838CE491E09183808385EC90E0958776
:101B4000848784EC90E09787868780EC90E0918B87
:101B5000808B81EC90E0938B828B82EC90E0958B74
:101B6000848B86EC90E0978B868B118E128E138E71
:101B7000148EE7E7F2E08FEF8083128211821486E1
:101B800013868FEF9FEFDC0187839087A187B28751
:101B900013821482158216820895CF93DF9300D0AA
:101BA00000D000D0CDB7DEB7789484B5826084BD14
:101BB00084B5816084BD85B5826085BD85B5816051
:101BC00085BD80916E00816080936E0010928100CF
:101BD000809181008260809381008091810081608A
:101BE000809381008091800081608093800080914B
:101BF000B10084608093B1008091B00081608093D7
:101C0000B00080917A00846080937A0080917A009D
:101C1000826080937A0080917A00816080937A005C
:101C200080917A00806880937A001092C100E091E0
:101C3000EA01F091EB0182E08083E091EA01F0910A
:101C4000EB011082E091E601F091E7011082E09152
:101C5000E801F091E90180E180831092F201E091C6
:101C6000EE01F091EF0186E08083E091EC01F091CC
:101C7000ED01808180618083E091EC01F091ED01C4
:101C8000808188608083E091EC01F091ED0180819A
:101C900080688083E091EC01F091ED0180818F7D7F
:101CA00080838EE00E94950081E10E9495008FE084
:101CB0000E94950060E08EE00E94B40060E081E147
:101CC0000E94B40060E08FE00E94B40080E10E94B6
:101CD000950060E080E10E94B40083E00E949500DE
:101CE00060E083E00E94B400B8E4CB2EB1E0DB2ECC
:101CF00002E411E0F801F1908F018F2D0E94950010
:101D000060E08F2D0E94B400C016D10699F790E0D4
:101D100080E00E9478068FEF91E090938700809397
:101D20008600109289001092880082E880938000DB
:101D300089E180938100219A10E000E010938900EE
:101D4000009388000E940B014B015C01A4E1CA2EA4
:101D5000D12CE12CF12C0E940B01681979098A0918
:101D60009B09683E734081059105A8F3F1E0CF1A05
:101D7000D108E108F10828EE820E23E0921EA11C92
:101D8000B11CC114D104E104F10429F70F5F1F4F06
:101D9000013441E0140791F680919901811157C0F7
:101DA00010928401109283018FEF809387018093BA
:101DB00088018093890180938A0180938B018093AD
:101DC0008C0181E080938D0180938E0110929001AF
:101DD00010928F0180E797E1909392018093910197
:101DE00083E090E090939401809393011092960188
:101DF00010929501109286011092850180917F01C9
:101E000090918001892B31F481E891E090938001D9
:101E100080937F01E0917D01F0917E01309721F068
:101E200081E891E09583848381E891E090937E013D
:101E300080937D01109298011092970180E391E0C8
:101E4000909382018093810181E080939901239A8C
:101E500088EC91E0909384018093830186E090E088
:101E60009093900180938F0180917A0290917B02F0
:101E7000A0917C02B0917D02843C59E09507A105B8
:101E8000B10520F484EC99E0A0E0B0E080937A0200
:101E900090937B02A0937C02B0937D0281E891E055
:101EA0009093A7018093A60119821A821B82CE010A
:101EB00001960E9487006FEF81E891E00E942E0753
:101EC00086E480937C0080917A00806480937A001D
:101ED00080917A0086FDFCCFC0907800D090790088
:101EE0000D2C000CEE08FF080E940B018B019C01D9
:101EF000C701B6016027712782279327C016D10634
:101F0000E206F30611F00E94FB120E94300160937A
:101F1000BB017093BC018093BD019093BE0160939F
:101F2000B6017093B7018093B8019093B901AA24C8
:101F3000AA940E942D0A0E9430016B017C018091BD
:101F4000BB019091BC01A091BD01B091BE01970170
:101F50008601081B190B2A0B3B0BD901C801803CD9
:101F60009742A940B10508F45FC0C092BB01D0926E
:101F7000BC01E092BD01F092BE010E94F2081091F6
:101F8000B501112309F44CC28091B1019091B201C5
:101F9000A091B301B091B401A7019601281B390BA0
:101FA0004A0B5B0BDA01C9018897A105B10508F45A
:101FB00037C2C092B101D092B201E092B301F09267
:101FC000B40119821A821B82CE0101960E948700F9
:101FD000113009F0BBC008EC11E0F12CF0E8EF2E55
:101FE0008091AF019091B0019695879596958795D0
:101FF0008F0D0E94D008F8011082E1821282843194
:1020000008F484E1682FC8010E944C02F6EDFF0E2F
:102010000D5F1F4F24E0F212E3CF60910301809126
:10202000A6019091A70122C14091BA014111A7CF09
:102030008091B6019091B701A091B801B091B9011A
:1020400097018601081B190B2A0B3B0BD901C8010C
:1020500088389341A105B10508F491CFC092B6012B
:10206000D092B701E092B801F092B901F091A501C8
:10207000FF2309F484CFE09102017090A401BB24F6
:10208000B3948091A10118160CF0B12C0F2F10E021
:10209000480121E0821A9108272D072C000C330BF0
:1020A000E7FF28C0C9010196B8010E947B13772081
:1020B00009F449C0D901AF55BE4F6C91062E000CF2
:1020C000770B615071091197AC910A2E000CBB0B74
:1020D000A617B707FCF091E0940F782EF91308C00B
:1020E000E195E0930201E7FD40E04093A40147CF72
:1020F000492FD2CFC801820F931F0197B8010E94C8
:102100007B13D901AF55BE4F6C918216930669F4CB
:1021100065300CF78093A401D901AF55BE4F8C9167
:10212000E80FEC930E9408062ACF062E000C770BCE
:102130006F5F7F4F1196AC910A2E000CBB0B6A1794
:102140007B0744F3C8CFBB2031F2E4CF123079F5DE
:102150008091AF019091B00165E0969587956A9561
:10216000E1F769E070E00E946713E82E08EC11E0E7
:10217000F12C70E8D72EEF1498F08E2D8F19843043
:1021800078F4F8011082D1821282880F6FEF70E02C
:1021900002C0759567958A95E2F7C8010E944C02C6
:1021A000F3940D5F1F4FF6E0FF12E5CF36CF1330EB
:1021B000C9F48091AF019091B00156E09695879552
:1021C0005A95E1F78770E8ECF1E090E020E8891794
:1021D00009F423CF1082218312829F5F33969630B9
:1021E000B1F71BCF143009F018CF8090AD0190905B
:1021F000AE016090AB017090AC018091AA0100919A
:10220000A8011091A901882311F010E000E0C3019A
:10221000072C000CAA0BBB0B6401092C000CEE0868
:10222000FF08C80ED91EEA1EFB1EC801012E000CB5
:10223000AA0BBB0BC80ED91EEA1EFB1E2091A601DD
:102240003091A7013D832C83309103013E831C1400
:102250001D041E041F04B4F019821A821B82CE01D1
:1022600001960E9487006E818C819D810E942E07BD
:102270008091AF019091B00108969093B001809346
:10228000AF01CEC026E030E0D4010E9497131601C2
:1022900027015594479437942794620D731D841D2C
:1022A000951DA70196010E940413B22E26E030E08E
:1022B000D3010E949713620D731D841D951DA70104
:1022C00096010E9404131814190424F4B11002C0DA
:1022D000BB24B394161417041CF4211101C021E08F
:1022E0004B2D420F5527551F473051052CF02B150C
:1022F000A0F586E0B82EB21A90E01016110624F46C
:102300008B2D820F96E0981B38EC832E31E0932EB4
:10231000F40180E0B81224C053E0859FF00111243D
:10232000E853FE4F280F281324C043E0849FF00198
:102330001124E853FE4F980F20EA891322C053E07E
:10234000859FF0011124E853FE4F863010F58F5F12
:102350001082118212823396F8CF26E02B19CCCF4F
:102360008630D1F28F5FA08234EB318312823396B4
:10237000D1CF8630D0F68F5F1082A1821282339641
:10238000D2CF863030F48F5F20831182A2823396C1
:10239000D4CFB12C8091AF019091B00196958795E3
:1023A00096958795061517050CF088C08B0D0E9431
:1023B000D008863408F486E4682FC4010E944C02D9
:1023C00083E0880E911C9AE2B90EECEFBE12E2CFC8
:1023D0006E818C819D810E942E07A7019601253672
:1023E00031054105510524F024E630E040E050E09D
:1023F000A6E1B0E00E94231324E630E040E050E084
:102400000E9404132E5F3F4F4F4F5F4F8091AF01EB
:102410009091B001280F391F3093B0012093AF0184
:1024200006E011E08CE0882E81E0982E92E4E92EFF
:1024300091E0F92EF80181918F018A3050F521E069
:1024400030E002C0220F331F8A95E2F7C9010E94D3
:102450007806F701B08061E08B2D0E94B400C09037
:102460000401D0900501C6010E94000160E08B2D9F
:102470000E94B40090E080E00E947806F0EFCF1652
:10248000FAE0DF0630F480EF9AE08C199D090E9493
:1024900000012FEFE21AF20A8016910659F60E9407
:1024A0002D0A80E090E0892B09F443CD0E94A90118
:1024B000882309F43ECD0E94000039CD8B1977CFD7
:1024C0008F929F92AF92BF92CF92DF92EF92FF9244
:1024D000CF93DF93EC01688179818A819B816115BB
:1024E00071058105910521F464E279ED8BE597E0B2
:1024F0002DE133EF41E050E00E94041349015A01FD
:102500009B01AC01A7EAB1E40E9423136B017C019B
:10251000ACEEB4EFA50194010E943113C60ED71E94
:10252000E81EF91EF7FE06C081E0C81AD108E108CE
:1025300080E8F80AC882D982EA82FB82C701B60124
:102540009F77DF91CF91FF90EF90DF90CF90BF907A
:10255000AF909F908F9008958F929F92AF92BF926D
:10256000CF92DF92EF92FF9260910C0170910D017A
:1025700080910E0190910F01611571058105910502
:1025800021F464E279ED8BE597E02DE133EF41E052
:1025900050E00E94041349015A019B01AC01A7EAD3
:1025A000B1E40E9423136B017C01ACEEB4EFA501F2
:1025B00094010E943113C60ED71EE81EF91EF7FEC5
:1025C00006C081E0C81AD108E10880E8F80AC09284
:1025D0000C01D0920D01E0920E01F0920F01C701A3
:1025E000B6019F77FF90EF90DF90CF90BF90AF90B4
:1025F0009F908F90089560930C0170930D018093CC
:102600000E0190930F010895052E97FB1EF4009480
:102610000E941B1357FD07D00E94361307FC03D0FE
:102620004EF40C941B1350954095309521953F4FD7
:102630004F4F5F4F089590958095709561957F4FAE
:102640008F4F9F4F08950E945813A59F900DB49FE0
:10265000900DA49F800D911D11240895B7FF0C9437
:1026600023130E942313821B930B0895A1E21A2EB9
:10267000AA1BBB1BFD010DC0AA1FBB1FEE1FFF1F26
:10268000A217B307E407F50720F0A21BB30BE40B76
:10269000F50B661F771F881F991F1A9469F76095BD
:1026A0007095809590959B01AC01BD01CF01089577
:1026B000A29FB001B39FC001A39F700D811D112483
:1026C000911DB29F700D811D1124911D0895AA1BAB
:1026D000BB1B51E107C0AA1FBB1FA617B70710F00D
:1026E000A61BB70B881F991F5A95A9F7809590953F
:1026F000BC01CD01089597FB072E16F4009407D076
:1027000077FD09D00E94671307FC05D03EF4909531
:1027100081959F4F0895709561957F4F08950E9410
:102720005813332312F48A1B9B0B0C9499130E94A9
:102730005813B7FF0895821B930B0895EE0FFF1FE8
:102740000590F491E02D099481E090E0F8940C94C8
:06275000A913F894FFCF6D
:10275600FFFFFFFFF00AFFFFFFFFFFFF0100000082
:10276600003131295A1B750A00000000F008F008F4
:10277600F0082A07B30226072307200700000000F7
:10278600B3054D054B052A07B302260723073C016F
:10279600F3020A080706050400000000DF013F01F6
:0A27A6006C012C029D017B018F01E4
:00000001FF
