:100000000C945D000C9485000C9485000C94850084
:100010000C9485000C9485000C9485000C9485004C
:100020000C9485000C9485000C9485000C9485003C
:100030000C9485000C9485000C9485000C9485002C
:100040000C940A0D0C9485000C947A0D0C94540DAC
:100050000C9485000C9485000C9485000C9485000C
:100060000C9485000C94850000000008000201003B
:100070000003040700000000000000000000000072
:10008000250028002B0000000000240027002A0083
:10009000040404040404040402020202020203032E
:1000A0000303030301020408102040800102040836
:1000B0001020010204081020AC0D11241FBECFEF48
:1000C000D8E0DEBFCDBF11E0A0E0B1E0E6EEFAE29D
:1000D00002C005900D92A436B107D9F722E0A4E63C
:1000E000B1E001C01D92A139B207E1F710E0CDE502
:1000F000D0E004C02197FE010E946615CC35D107DF
:10010000C9F70E94EC0D0C9471150C940000E5EDFC
:10011000F1E0DC012D913D914C912193319341937C
:10012000B1E0E73EFB07A9F7089590E0FC01EC552C
:10013000FF4F249180579F4FFC018491882399F0B1
:1001400090E0880F991FFC01EA57FF4FA591B491E9
:10015000FC01E458FF4F859194918FB7F894EC918E
:10016000E22BEC938FBF089590E0FC01E859FF4F1C
:100170002491FC01EC55FF4F3491FC01E057FF4FF7
:10018000E491EE23C9F0222339F0233001F1A8F4E1
:10019000213019F1223029F1F0E0EE0FFF1FE45871
:1001A000FF4FA591B4918FB7F894EC91611126C0DF
:1001B00030953E233C938FBF08952730A9F0283017
:1001C000C9F0243049F7809180008F7D03C0809171
:1001D00080008F7780938000DFCF84B58F7784BDD8
:1001E000DBCF84B58F7DFBCF8091B0008F7780937C
:1001F000B000D2CF8091B0008F7DF9CF3E2BDACF07
:100200008230910538F0880F991F880F991F059744
:100210000197F1F708953FB7F8948091D10190913B
:10022000D201A091D301B091D40126B5A89B05C0FD
:100230002F3F19F00196A11DB11D3FBFBA2FA92F65
:10024000982F8827BC01CD01620F711D811D911D62
:1002500042E0660F771F881F991F4A95D1F70895CE
:100260002FB7F8946091CD017091CE018091CF01AC
:100270009091D0012FBF089580E991E00895AF9249
:10028000BF92CF92DF92EF92FF920F931F93CF9383
:10029000DF936C017B018B01040F151FEB015E01E5
:1002A000AE18BF08C017D10759F06991D601ED917A
:1002B000FC910190F081E02DC6010995892B79F719
:1002C000C501DF91CF911F910F91FF90EF90DF90CB
:1002D000CF90BF90AF900895FC01538D448D252F92
:1002E00030E0842F90E0821B930B541710F0CF96D0
:1002F000089501970895FC01918D828D981761F002
:10030000A28DAE0FBF2FB11D5D968C91928D9F5F18
:100310009F73928F90E008958FEF9FEF0895FC01F7
:10032000918D828D981731F0828DE80FF11D858DAA
:1003300090E008958FEF9FEF0895FC01918D228D3D
:10034000892F90E0805C9F4F821B91098F739927C2
:10035000089587EE91E00E949D0121E0892B09F428
:1003600020E0822F089580E090E0892B29F00E9400
:10037000A90181110C9400000895FC01A48DA80F1F
:10038000B92FB11DA35ABF4F2C91848D90E00196D7
:100390008F739927848FA689B7892C93A089B189F7
:1003A0008C91837080648C93938D848D981306C098
:1003B0000288F389E02D80818F7D80830895EF92FC
:1003C000FF920F931F93CF93DF93EC0181E0888F0F
:1003D0009B8D8C8D98131AC0E889F989808185FFDF
:1003E00015C09FB7F894EE89FF896083E889F98981
:1003F00080818370806480839FBF81E090E0DF9183
:10040000CF911F910F91FF90EF900895F62E0B8DD5
:1004100010E00F5F1F4F0F731127E02E8C8D8E1190
:100420000CC00FB607FCFACFE889F989808185FFF7
:10043000F5CFCE010E94BD01F1CFEB8DEC0FFD2F6A
:10044000F11DE35AFF4FF0829FB7F8940B8FEA89B2
:10045000FB8980818062CFCFCF93DF93EC01888DC1
:100460008823B9F0AA89BB89E889F9898C9185FD2F
:1004700003C0808186FD0DC00FB607FCF7CF8C91BD
:1004800085FFF2CF808185FFEDCFCE010E94BD01B7
:10049000E9CFDF91CF910895FC018081869F080EFE
:1004A00080E0811D80838181869F080E80E0811D10
:1004B00081838281869F080E80E0811D82831124C2
:1004C000CF010895AF92BF92CF92DF92EF92FF9249
:1004D0000F931F93CF93DF9300D01F92CDB7DEB75A
:1004E0005A0119821A821B82882361F18B01E1E093
:1004F000F0E0E82EF12CD8012D918D012223F1F0AE
:100500006F01B1E0CB1AD108D501AC0DBD1D4C91E6
:100510004423A1F030E02F5F3F4FD7010E94201508
:10052000A42FB0E011969B01AC010E94EB14A1E056
:10053000B0E0AC0FBD1FAC0DBD1D8C933196E43007
:10054000F105C9F669817A818B810F900F900F9028
:10055000DF91CF911F910F91FF90EF90DF90CF909F
:10056000BF90AF90089581E090E008950F931F939E
:10057000CF93DF93209187012F5F322F3770309315
:10058000870120FF2BC020E831FD2064347009F082
:100590002062205FFC01EC01239600E011E06785FA
:1005A000662329F070E0C8010E9443156F5F6187E0
:1005B000822F869F080E80E0811D1124811110C0BA
:1005C0001682662311F0615061873196EC17FD07A2
:1005D00031F7DF91CF911F910F91089520E0D4CF93
:1005E00081508683EECF4F925F927F928F929F923F
:1005F000AF92BF92CF92DF92EF92FF920F931F9331
:10060000CF93DF932C01EB010E940B01F2012689AD
:100610003789621B730B6A307105B0F3F8948A81D5
:100620009B81181619060CF0CBC1E881F98105B140
:10063000086075B1777F75B9BA848F812B2D281B1F
:10064000822F2F834C85042E000C550BAA81BB8171
:10065000E888DF84C988E394D394C3949E81388565
:1006600099848B84118120E0F32E622F322F318107
:10067000112788943111380F08F43FEF8195889441
:10068000E0FC130F17958894E1FC130F17958894DD
:10069000E2FC130F17958894E3FC130F17958894C9
:1006A000E4FC130F17958894E5FC130F17958894B5
:1006B000E6FC130F17958894E7FC130F17958894A1
:1006C000232FE110212F8B0D122F002C05B900C014
:1006D00017FF75B930812227889400C000C0002C14
:1006E00075B93111390F00C0002C05B900C016FFD3
:1006F00075B908F43FEF9195889400C000C0002CB4
:1007000075B9D0FC230F00C0002C05B900C015FF3F
:1007100075B927958894D1FC230F00C000C0002C28
:1007200075B92795889400C0002C05B900C014FF46
:1007300075B9D2FC230F2795889400C000C0002C07
:1007400075B9D3FC230F00C0002C05B900C013FFFE
:1007500075B927958894D4FC230F00C000C0002CE5
:1007600075B92795889400C0002C05B900C012FF08
:1007700075B9D5FC230F2795889400C000C0002CC4
:1007800075B9D6FC230F00C0002C05B900C011FFBD
:1007900075B927958894D7FC230F00C000C0002CA2
:1007A00075B92795889400C0002C05B900C010FFCA
:1007B00075B9132FD110122F990D00C000C0002C55
:1007C00075B900C000C0002C05B900C017FF75B98D
:1007D00032812227889400C000C0002C75B93111E5
:1007E0003F0D00C0002C05B900C016FF75B908F414
:1007F0003FEFE40FF51F00C000C0002C75B9C0FC2E
:10080000230F00C0002C05B900C015FF75B927954E
:100810008894C1FC230F00C000C0002C75B9279537
:10082000889400C0002C05B900C014FF75B9C2FC43
:10083000230F2795889400C000C0002C75B9C3FC15
:10084000230F00C0002C05B900C013FF75B9279510
:100850008894C4FC230F00C000C0002C75B92795F4
:10086000889400C0002C05B900C012FF75B9C5FC02
:10087000230F2795889400C000C0002C75B9C6FCD2
:10088000230F00C0002C05B900C011FF75B92795D2
:100890008894C7FC230F00C000C0002C75B92795B1
:1008A000889400C0002C05B900C010FF75B9132F43
:1008B000C110122FF19400C000C0002C75B9F80CC3
:1008C00000C000C005B900C017FF75B931812227EB
:1008D000889400C000C0002C75B93111380F00C0D9
:1008E000002C05B900C016FF75B908F43FEF8195DB
:1008F000889400C000C0002C75B9E0FC230F00C034
:10090000002C05B900C015FF75B927958894E1FC46
:10091000230F00C000C0002C75B92795889400C033
:10092000002C05B900C014FF75B9E2FC230F279510
:10093000889400C000C0002C75B9E3FC230F00C0F0
:10094000002C05B900C013FF75B927958894E4FC05
:10095000230F00C000C0002C75B92795889400C0F3
:10096000002C05B900C012FF75B9E5FC230F2795CF
:10097000889400C000C0002C75B9E6FC230F00C0AD
:10098000002C05B900C011FF75B927958894E7FCC4
:10099000230F00C000C0002C75B92795889400C0B3
:1009A000002C05B900C010FF75B9132FE110122FEC
:1009B0008B0D00C000C0002C75B9119709F086CED0
:1009C000EA81FB812EE130E0DF010E945F1530E01B
:1009D00020E0A901AAE9EA9F0E0E411DFA9F400DF1
:1009E000511D11244F0F511DDC01CB01840F951FA8
:1009F000A11DB11D893E43E09407A105B10508F48E
:100A000034C0885E9340A109B10942E0B695A7952C
:100A1000979587954A95D1F747E0849F080E211D49
:100A2000949F200D311D1124290F311D60918601E5
:100A300070E0860F971F820F931F4091CD01509158
:100A4000CE016091CF017091D001292F3327420F41
:100A5000531F611D711D4093CD015093CE016093D2
:100A6000CF017093D0018093860178940E940B018E
:100A7000F201778B668BDF91CF911F910F91FF90E1
:100A8000EF90DF90CF90BF90AF909F908F907F902E
:100A90005F904F900895239A08956F927F928F925E
:100AA000CF92DF92EF92FF920F931F93CF93DF933A
:100AB000CDB7DEB762970FB6F894DEBF0FBECDBFDD
:100AC0008C016B017A01822FA801475F5F4FB8014B
:100AD0006A5F7F4F0E9462023B01882ED8011C96FC
:100AE0002C91C701F7FE04C0882799278E199F090A
:100AF000DA82C9829C838B839E838D83688A798AFC
:100B00008A8A213049F5CE0101960E94B60283E01F
:100B10008D871F861E86F7FE02C08DEF8D87D80158
:100B2000ED91FC910088F189E02DBE016F5F7F4F50
:100B3000C801099562960FB6F894DEBF0FBECDBF0F
:100B4000DF91CF911F910F91FF90EF90DF90CF90A9
:100B50008F907F906F9008951C861B861A86198649
:100B600018861F82D4CFCF92DF92EF92FF920F931D
:100B70001F93CF93DF93CDB7DEB762970FB6F8948C
:100B8000DEBF0FBECDBF8C016B017A01822FA801A1
:100B9000475F5F4FB8016A5F7F4F0E9462029B010F
:100BA000482FD8011C968C91DA82C982FC82EB8294
:100BB000FE82ED82288B398B4A8B813009F5CE017C
:100BC00001960E94B6021D861F861E86D801ED91F1
:100BD000FC910088F189E02DBE016F5F7F4FC80155
:100BE000099562960FB6F894DEBF0FBECDBFDF91B8
:100BF000CF911F910F91FF90EF90DF90CF900895CC
:100C00001C861B861A86198618861F82DCCF0895DB
:100C1000CF93DF938FEF8093070180930801809338
:100C2000090180930A0180930B0180930C012091AC
:100C3000B001CCEAD1E0A8E6B1E080E0281751F09D
:100C4000E9919D910E2E000CFF0BE95FFE4F908302
:100C50008F5FF4CFDF91CF910895E82F809100014D
:100C60009091010197FF04C01092B0010C94080606
:100C70004091B0018436910534F123E02093B00116
:100C800021E0209368012AE030E0B9010E94431579
:100C9000F82FCB01B9010E94431580936901F093AD
:100CA0006A012091B001E11102C02417F9F296E027
:100CB000921BECEAF1E080E02817C1F2382F390FDF
:100CC00031938F5FF9CF8A30910564F022E0209351
:100CD000B0016AE070E00E94431560936801809360
:100CE0006901DFCF91E09093B00180936801D9CF83
:100CF000EF92FF920F931F93CF93DF937C010FE04E
:100D000010E0C3E0D0E0B701002E02C076956795F1
:100D10000A94E2F761708EE00E94B40061E081E124
:100D20000E94B400CE010197F1F760E081E10E94DA
:100D3000B400CE010197F1F70150110920F761E0ED
:100D40008FE00E94B4002197F1F760E08FE0DF911F
:100D5000CF911F910F91FF90EF900C94B4003F92B0
:100D60004F925F926F927F928F929F92AF92BF92BB
:100D7000CF92DF92EF92FF920F931F93CF93DF9367
:100D80004B015C010E9430016B017C0190EF492E08
:100D90009AE0592E0E9430016C197D098E099F0935
:100DA000681579058A059B05C8F587E0682E81E0FE
:100DB000782ECCE4D1E0F30181913F018A3038F5FF
:100DC00021E030E002C0220F331F8A95E2F7C9010B
:100DD0000E947806388061E0832D0E94B400009163
:100DE000050110910601C8010E94000160E0832DF9
:100DF0000E94B40090E080E00E947806003F3AE054
:100E0000130728F4C201801B910B0E940001219658
:100E10008DE0681681E0780671F6BCCFDF91CF9146
:100E20001F910F91FF90EF90DF90CF90BF90AF9008
:100E30009F908F907F906F905F904F903F9008951C
:100E400090E080E00895FC0164870895FC018485AA
:100E500090E00895FC01868597850895FF920F9391
:100E60001F93CF93DF93EC01F62E6E857F85E8818B
:100E7000F9810284F385E02D09958C018D85882305
:100E800061F04E855F856A817B81E881F98102800E
:100E9000F381E02D2F2DCE010995E881F98104849D
:100EA000F585E02DB801CE01DF91CF911F910F9113
:100EB000FF900994CF93DF9300D01F92CDB7DEB798
:100EC00019821A821B82CE0101960E9487008091AE
:100ED00000019091010184369105B4F0198280E8F7
:100EE0008A831B82CE0101960E94870060910401D3
:100EF0008091B3019091B4010E942E070F900F9042
:100F00000F90DF91CF91089597FDF0CF489669E15A
:100F100070E00E944315662339F080E890E063306A
:100F200030F48FEF623011F061E080E09FEFE5ED8B
:100F3000F1E020E09083818312822F5F33962613A5
:100F4000F9CFD4CFCF92DF92EF92FF920F931F93FE
:100F5000CF93DF938091C701813009F017C12091B1
:100F60006B0130916C012333310514F022E330E042
:100F7000A0EABFEF0E94571522E330E040E050E0C6
:100F80000E94CC14205AD22FDD0FDD0FDD0F35E586
:100F9000CD2FC39F0C0EC0E0C11D1124922F907461
:100FA000822F807227FD50C091113AC0811106C076
:100FB0009C2F9095FC2EC92FD0E005C035E5F32E6F
:100FC000FC0ED0E0CBEA009100011091010120E07D
:100FD00017FD0BC020E630E0D8010E945F1524E623
:100FE00030E040E050E00E94CC14322F330F330F3A
:100FF000330F95E5832F899F080E80E0811D112412
:10100000522F5074422F407227FD9AC0511186C052
:1010100041113CC0982F9095282F892F90E03AC01D
:1010200081110CC09AEAD99F0D0ED0E0D11D112478
:101030009BEA9D1B2AEAF22EFC0EBDCF80E0FC2E1F
:10104000F094DC2FC0E0BFCF911111C081110BC013
:101050008AEAD89F0D0ED0E0D11D11248BEAF82E1C
:10106000FD1ADB5AEFCFDC2FD095F12CACCF8111DC
:1010700006C095E59C0FDBEADC1BC92FF6CF8AEA98
:101080008C0F90E0D32FDC1BC82FEFCF25E5280F66
:1010900090E08BEAC093DB01F092DC01D093DD019C
:1010A000C090DB01D090DC01E090DD01C092D8015E
:1010B000D092D901E092DA01C092D501D092D60146
:1010C000E092D701043611050CF459C08093DE017B
:1010D0002093DF019093E0018093E4012093E501E8
:1010E0009093E6018091E4019091E501A091E601E1
:1010F0008093E1019093E201A093E30160910401E8
:101100008091B3019091B401DF91CF911F910F9124
:10111000FF90EF90DF90CF900C942E0741110AC002
:101120002AEA329F030E30E0311D11249BEA931B03
:10113000280F73CF90E0282F2095982F80E0AACF1A
:10114000511111C041110BC0932F8AEA989F090ECB
:1011500090E0911D11242BEA291B9B5AEFCF982F69
:10116000909520E097CF411106C025E5280F9BEA16
:10117000981B822FF6CF2AEA280F30E0F9CF109281
:10118000DE011092DF011092E001A6CFDF91CF9136
:101190001F910F91FF90EF90DF90CF900C945A0722
:1011A000282F86FD2095E22FEF732F7086FD2F5F8D
:1011B000E695E695E695E670F0E0E65EFE4F9181F5
:1011C000929F902D212D112492959F702295207F22
:1011D000922B2081920F87FD919580E8890F0895C9
:1011E0000E946C152F923F924F925F926F927F9266
:1011F0008F929F92AF92BF92CF92DF92EF92FF9227
:101200000F931F93CF93DF93CDB7DEB7C254D109AD
:101210000FB6F894DEBF0FBECDBF47E051E05EAF22
:101220004DAF8E010F5C1F4FD801FA0181918D9354
:1012300051E0ED30F507D1F7F12C24EF2F0DF80137
:10124000A7E0B1E08F2D87FF00C190819D93825070
:1012500031968213F8CF66E970E080E090E00E945A
:10126000AF06F39484E1F812E8CF0E9430012B011D
:101270003C01DE0111962196BFAFAEAF21976E0102
:10128000BDE3CB0ED11C47E0242E41E0342EFE01FD
:1012900079962396FFAFEEAF2397AE01495C5F4F7F
:1012A0007A015CEB852E52E0952EA12CB12CD70152
:1012B000E9E0ED937D010E947414A50194010E9460
:1012C000CC1460577E4F8F4F9F4F2196AEADBFAD70
:1012D00021976D937D938D939D932196BFAFAEAF74
:1012E0002197640D751D861D971D2396EEADFFADEC
:1012F000239761937193819391932396FFAFEEAF00
:101300002397D101E9E0ED931D01EC14FD0479F67A
:101310000E9430014B015C01FE017996AE01495CEF
:101320005F4F1A0190E080E0F12CD1012D911D0159
:10133000222371F14080518062807380841495046F
:10134000A604B70418F12150BD0161507109DB01F9
:101350002C93BC01660F771F660F771F41E050E0AA
:101360004C0F5D1F640F751FDB014D915D916D91F9
:101370007C91440D551D661D771D4083518362830A
:101380007383AC01495F5E4FDA012C93FF24F39421
:10139000019634968630910541F66EE170E080E06A
:1013A00090E00E94AF06F110B3CF60E971E080E0F9
:1013B00090E00E94AF06F12CE12C4801B6E08B0EC4
:1013C000911CE7E0F1E05801D5018D915D018A3073
:1013D00008F041C090E0E816F9060CF4C7018193CB
:1013E0008A149B0489F760E570E080E090E00E9439
:1013F000AF06BFEFEB1AFB0AEAE0EE16F10409F7BD
:10140000D8018D918D01EDADFEAD8193FEAFEDAFB5
:10141000AA16BB06A9F7CE5BDF4F0FB6F894DEBF66
:101420000FBECDBFDF91CF911F910F91FF90EF9035
:10143000DF90CF90BF90AF909F908F907F906F90F4
:101440005F904F903F902F900895982F8A300CF422
:10145000FDCE99E0FBCE8FEFC2CF2F923F924F92FD
:101460005F926F927F928F929F92AF92BF92CF9234
:10147000DF92FF920F931F93CF93DF9300D000D0A2
:1014800000D01F92CDB7DEB731E4432E512C612C32
:10149000712C4AE0842E912C0FEFFF24FA9453E72D
:1014A000252E51E0352E87EE91E00E949D01892B7B
:1014B00009F498C287EE91E00E947B0110918501AA
:1014C0008A3009F082C2E12FF0E0E359FE4F10822A
:1014D00089EF810F803108F0B8C186EF810F82302B
:1014E00008F493C183EF810F863008F48EC1EDE6D6
:1014F000F1E0819180538A3008F087C12E163F06B3
:10150000C1F7209173018DEB820F823008F07DC10D
:1015100040916D01042E000C550B4053510934E6E7
:10152000349FC001359F900D112440916E01042E0F
:10153000000C550B405351093AE0349FB001359FE0
:10154000700D1124860F971F40916F01042E000C1F
:10155000550B40535109840F951F8536910514F0A2
:1015600084E690E09093010180930001173009F424
:101570004FC18091740190ED980F9A3008F048C1E6
:10158000892F9CE1899F802D112480930401C12C17
:10159000193090F1CC24C39480917501813309F006
:1015A000C12C1C3048F140917601042E000C550BE3
:1015B0004053510934E6349FC001359F900D1124EA
:1015C00040917701042E000C550B405351093AE02D
:1015D000349FB001359F700D1124860F971F4091E5
:1015E0007801042E000C550B40535109840F951FB0
:1015F00090936C0180936B0140917001042E000C5C
:10160000550B4053510934E6349FC001359F900D6E
:10161000112440917101042E000C550B40535109C7
:101620003AE0349FB001359F700D1124860F971F4B
:1016300040917201042E000C550B40535109840F48
:10164000951F482F392F243411F040E030E04093AB
:10165000B8013093B901233411F090E080E0909309
:10166000B2018093B101133108F48CC081E09091F4
:101670007901953409F080E08093B70120917A01D7
:10168000022E000C330B2053310954E6529FC00147
:10169000539F900D112420917B01022E000C330BDF
:1016A000205331094AE0429FB001439F700D11243D
:1016B000860F971F20917C01022E000C330B2053C4
:1016C0003109820F931F9093B6018093B501209149
:1016D0007D01022E000C330B20533109529FC001B3
:1016E000539F900D112420917E01022E000C330B8C
:1016F00020533109429FB001439F700D1124860F82
:10170000971F20917F01022E000C330B20533109CB
:10171000820F931F9093BB018093BA01133191F113
:101720008091800190ED980F9A3080F4082E000C83
:10173000990BC0974AEF489F9001499F300D1124A3
:10174000285A3D4F30930601209305011431D1F002
:10175000809181018053863050F49091C201981796
:1017600031F08093C201811102C00E94A20716319C
:1017700049F4809182019FEC980F993018F48053BE
:1017800080930301C092C7016C2D83E00E94B400D6
:1017900021E0C21256C0F0920A01F0920B01F092C1
:1017A0000C0120916B0130916C01283E43E034071D
:1017B00094F56FEF243631052CF0C90164E670E032
:1017C0000E94431560930701C901B4010E944315AB
:1017D000282FCB01B4010E94431580930801209368
:1017E0000901209100013091010124363105B4F046
:1017F00081E080930A0110920B0110920C018091FC
:10180000C201811102C00E94A207109285014BCE35
:10181000F0920401BCCE27EE33E0CFCF37FDEFCFFF
:101820006FEF2A30310524F0C901B4010E9443153D
:1018300060930B01C901B4010E94431580930C0110
:10184000DECF80E00E942D06DACF113009F0ACC067
:1018500080916D01883509F0A1C00E9430015B01C3
:101860006C010E9430016A197B098C099D09683B53
:101870007B408105910510F50E9430016A197B09B2
:101880008C099D09A30192010E94FE14E7E0F1E09A
:1018900030E027503140C9018E0F9F1FB4010E94D4
:1018A000431581938DE091E08E179F07A1F761E4C6
:1018B00070E080E090E00E94AF06D3CFA0900001DE
:1018C000B0900101D12CC12CD0920101C092000135
:1018D00081E00E942D060E945A076DE270E080E0D0
:1018E00090E00E94AF069FEFC91AD90A25E6C216FA
:1018F000D10451F760EB74E080E090E00E94AF0605
:101900000E9430016C837D838E839F8311E0D12CF4
:101910000E9430012C813D814E815F81621B730BDF
:10192000840B950B683B7B408105910568F5F98236
:101930001A821B82CE0101960E9487008D2D0D2CEC
:10194000000C990BFC01EE0FFF1FE80FF91FEB5283
:10195000FE4F108211820283609104018091B301D5
:101960009091B4010E942E0760EA70E080E090E060
:101970000E94AF06D10E44E04D1524F01D1444F230
:1019800011E0C6CF1FEFC4CFB0920101A0920001B9
:1019900081E00E942D060E945A0737CF833509F057
:1019A00034CF0E94F20831CF123009F02ECF80914F
:1019B0006D01813409F029CF80916E01805386300A
:1019C00008F023CF8093C2011CCF173108F01DCF40
:1019D00091E0910F90938501E12FF0E0E359FE4FE4
:1019E000808361CD27960FB6F894DEBF0FBECDBFC2
:1019F000DF91CF911F910F91FF90DF90CF90BF901B
:101A0000AF909F908F907F906F905F904F903F909E
:101A10002F9008951F920F920FB60F9211242F93BB
:101A20003F938F939F93AF93BF938091CD019091FC
:101A3000CE01A091CF01B091D0013091CC0123E033
:101A4000230F2D3758F50196A11DB11D2093CC0110
:101A50008093CD019093CE01A093CF01B093D0019C
:101A60008091D1019091D201A091D301B091D40184
:101A70000196A11DB11D8093D1019093D201A09335
:101A8000D301B093D401BF91AF919F918F913F91BA
:101A90002F910F900FBE0F901F90189526E8230FDF
:101AA0000296A11DB11DD2CF1F920F920FB60F92B9
:101AB00011242F933F934F935F936F937F938F9353
:101AC0009F93AF93BF93EF93FF9387EE91E00E94B4
:101AD000BD01FF91EF91BF91AF919F918F917F9148
:101AE0006F915F914F913F912F910F900FBE0F908B
:101AF0001F9018951F920F920FB60F9211242F93DB
:101B00008F939F93EF93FF93E091F701F091F8018A
:101B10008081E091FD01F091FE0182FD1BC090816A
:101B2000809100028F5F8F7320910102821741F034
:101B3000E0910002F0E0E951FE4F958F80930002A2
:101B4000FF91EF919F918F912F910F900FBE0F906A
:101B50001F9018958081F4CFE7EEF1E01382128296
:101B600088EE93E0A0E0B0E084839583A683B783FA
:101B700086E591E09183808385EC90E0958784876A
:101B800084EC90E09787868780EC90E0918B808B47
:101B900081EC90E0938B828B82EC90E0958B848B30
:101BA00086EC90E0978B868B118E128E138E148E9E
:101BB000E4E8F2E08FEF80831282118214861386AC
:101BC0008FEF9FEFDC0187839087A187B287138215
:101BD0001482158216820895CF93DF93CDB7DEB7B6
:101BE000A5970FB6F894DEBF0FBECDBF789484B52D
:101BF000826084BD84B5816084BD85B5826085BD09
:101C000085B5816085BD80916E00816080936E0096
:101C10001092810080918100826080938100809188
:101C20008100816080938100809180008160809339
:101C300080008091B10084608093B1008091B000F9
:101C400081608093B00080917A00846080937A00F4
:101C500080917A00826080937A0080917A0081601E
:101C600080937A0080917A00806880937A00109245
:101C7000C100E091F701F091F80182E08083E091EA
:101C8000F701F091F8011082E091F301F091F40175
:101C90001082E091F501F091F60180E180831092CD
:101CA000FF01E091FB01F091FC0186E08083E0916F
:101CB000F901F091FA01808180618083E091F9015E
:101CC000F091FA01808188608083E091F901F091C0
:101CD000FA01808180688083E091F901F091FA0136
:101CE00080818F7D80838EE00E94950081E10E943B
:101CF00095008FE00E94950060E08EE00E94B400A5
:101D000060E081E10E94B40060E08FE00E94B400D6
:101D100080E10E94950060E080E10E94B40083E0D1
:101D20000E94950060E083E00E94B40052E5C52E59
:101D300051E0D52E0CE411E0D801FD908D018F2DDE
:101D40000E94950060E08F2D0E94B400C016D1065D
:101D500099F790E080E00E9478068FEF91E09093F1
:101D6000870080938600109289001092880082E894
:101D70008093800089E180938100219A10E000E047
:101D800010938900009388000E940B014B015C01B5
:101D900044E1C42ED12CE12CF12C0E940B016819D6
:101DA00079098A099B09683E734081059105A8F36A
:101DB000B1E0CB1AD108E108F108E8EE8E0EE3E0BD
:101DC0009E1EA11CB11CC114D104E104F10429F729
:101DD0000F5F1F4F013421E0120791F68091A4019B
:101DE000811157C010928F0110928E018FEF809356
:101DF0009201809393018093940180939501809345
:101E000096018093970181E08093980180939901D6
:101E100010929B0110929A0180E797E190939D01A7
:101E200080939C0183E090E090939F0180939E01BA
:101E30001092A1011092A0011092910110929001B4
:101E400080918A0190918B01892B31F48CE891E08B
:101E500090938B0180938A01E0918801F091890130
:101E6000309721F08CE891E0958384838CE891E0B1
:101E700090938901809388011092A3011092A2018E
:101E80008AE391E090938D0180938C0181E08093AF
:101E9000A401239A85ED91E090938F0180938E01A8
:101EA00086E090E090939B0180939A018091870255
:101EB00090918802A0918902B0918A02843C39E015
:101EC0009307A105B10520F484EC99E0A0E0B0E00F
:101ED0008093870290938802A0938902B0938A022C
:101EE0008CE891E09093B4018093B30119821A8237
:101EF0001B82CE0101960E9487006FEF8CE891E073
:101F00000E942E0786E480937C0080917A00806492
:101F100080937A0080917A0086FDFCCFC090780093
:101F2000D09079000D2C000CEE08FF080E940B01E8
:101F30008B019C01C701B601602771278227932777
:101F4000C016D106E206F30611F00E94C3140E94E7
:101F500030016093C8017093C9018093CA019093C6
:101F6000CB016093C3017093C4018093C50190932A
:101F7000C6018091110190911201A091130188A3D3
:101F800099A3AAA3009114011091150120911601A3
:101F90000BA31CA32DA32091170130911801409190
:101FA00019012D8F3E8F4F8F8E010D5E1F4F1A8F9F
:101FB000098F0E942D0A0E9430016B017C018091E3
:101FC000C8019091C901A091CA01B091CB01A701AC
:101FD0009601281B390B4A0B5B0BDA01C901803CC7
:101FE0009742A940B10508F46FC0C092C801D092D1
:101FF000C901E092CA01F092CB010E94F20810914F
:10200000C201112309F4C3C28091BE019091BF01A6
:10201000A091C001B091C101A7019601281B390B05
:102020004A0B5B0BDA01C9018897A105B10508F4D9
:10203000AEC2C092BE01D092BF01E092C001F09248
:10204000C10119821A821B82CE0101960E9487006B
:10205000113009F0CBC005ED11E0F12C30E8E32E92
:102060008091BC019091BD01969587959695879535
:102070008F0D0E94D008D8011C921196EC921197F6
:1020800012961C92843108F484E1682FC8010E94E2
:102090004C02B6EDFB0E0D5F1F4FE4E0FE12E0CFE9
:1020A000609104018091B3019091B4010E942E07C8
:1020B0008091030190E0880F991F2091BC0130911D
:1020C000BD01820F931F2BC14091C701411197CFD2
:1020D0008091C3019091C401A091C501B091C60146
:1020E00097018601081B190B2A0B3B0BD901C8016C
:1020F00088389341A105B10508F481CFC092C3018E
:10210000D092C401E092C501F092C601F091B001F5
:10211000FF2309F474CFA090AF01E0910201BB242A
:10212000B3948091AC0118160CF0B12C0F2F10E075
:10213000480121E0821A91082A2D0A2C000C330B49
:10214000E7FF28C0C9010196B8010E944315AA20E3
:1021500009F449C0D901A455BE4F6C91062E000C5C
:10216000770B615071091197AC910A2E000CBB0BD3
:10217000A617B707FCF091E0940FA82EF91308C03A
:10218000E195E0930201E7FD40E04093AF0137CFD6
:10219000492FD2CFC801820F931F0197B8010E9427
:1021A0004315D901A455BE4F6C912815390569F422
:1021B00065300CF78093AF01D901A455BE4F8C91C7
:1021C000E80FEC930E9408061ACF062E000C770B3E
:1021D0006F5F7F4F1196AC910A2E000CBB0B6A17F4
:1021E0007B0744F3C8CFBB2031F2E4CF123091F526
:1021F0008091BC019091BD01B5E096958795BA9507
:10220000E1F769E070E00E942F15E82E05ED11E07E
:10221000F12C80E8D82EEF14B0F08E2D8F19843079
:1022200090F4D8011C921196DC92119712961C9290
:10223000880F6FEF70E002C0759567958A95E2F799
:10224000C8010E944C02F3940D5F1F4FB6E0FB12D1
:10225000E2CF26CF1330C9F48091BC019091BD012B
:10226000A6E096958795AA95E1F78770E5EDF1E0F0
:1022700090E020E8891709F413CF1082218312829D
:102280009F5F33969630B1F70BCF143009F025C11C
:10229000A090BA01B090BB018090B8019090B901B4
:1022A0008091B7010091B5011091B601882311F01A
:1022B00010E000E0C401092C000CAA0BBB0B650167
:1022C0000B2C000CEE08FF08C80ED91EEA1EFB1EE0
:1022D000C801012E000CAA0BBB0BC80ED91EEA1EAA
:1022E000FB1EE091B301F091B401FC8FEB8F609085
:1022F00004011C141D041E041F04B4F019821A8268
:102300001B82CE0101960E948700662D8B8D9C8DCD
:102310000E942E078091BC019091BD010896909378
:10232000BD018093BC0133C126E030E0D5010E949D
:102330005F15160127015594479437942794620D31
:10234000731D841D951DA70196010E94CC14722E49
:1023500026E030E0D4010E945F15620D731D841DDC
:10236000951DA70196010E94CC141A141B0424F495
:10237000711002C077247394181419041CF42111ED
:1023800001C021E0472D420F5527551F4730510509
:102390002CF02715C0F586E0782E721A90E0101602
:1023A000110624F4872D820F96E0981BE5EDAE2EE2
:1023B000E1E0BE2EF50180E04FEF34EB781226C04D
:1023C00053E0859FF0011124EB52FE4F280F3FEFA1
:1023D000821324C0A3E08A9FF0011124EB52FE4F28
:1023E000980F30EA2FEF891321C0B3E08B9FF001E3
:1023F0001124EB52FE4F863008F58F5F1082118258
:1024000012823396F8CF26E02719C8CF8630C1F262
:102410008F5F4083318312823396D0CF8630D0F6DF
:102420008F5F1082318312823396D2CF863030F4A0
:102430008F5F3083118222833396D5CF712C8091A8
:10244000BC019091BD019695879596958795081545
:1024500019050CF040C0870D0E94D008863408F49E
:1024600086E4682FC5010E944C02E3E0AE0EB11C69
:10247000FAE27F0E2CEF7212E2CF662D8B8D9C8DCF
:102480000E942E07A7019601253631054105510509
:1024900024F024E630E040E050E0A8E1B0E00E9403
:1024A000EB1424E630E040E050E00E94CC14809130
:1024B000030190E0B0E0A0E0880F991FAA1FBB1FA6
:1024C000820F931FA41FB51F4091BC015091BD0105
:1024D000840F951F24CF8719BFCF153009F0E0CDA9
:1024E00088A199A1AAA18E8B9F8BA88F0BA11CA15B
:1024F0002DA10B8B1C8B2D8BE090B101F090B201C4
:102500000091B8011091B9011E141F040CF4870149
:1025100019821A821B82CE0101960E948700101632
:1025200011060CF492C00E94300128E833E140E02B
:1025300050E00E94FE14683E13E0710700F5643F0E
:1025400041E0740708F076C02FEF269FA001279F77
:10255000500D1124CA0164EF71E00E942F158D8D7A
:102560009E8DAF8D8093DB019093DC01A093DD0104
:1025700066956695685F8BED91E00E944C026091D4
:1025800004018091B3019091B4010E942E0707E0ED
:1025900011E08DE0682E81E0782E9CE4E92E91E038
:1025A000F92EAA24A394B12C30EF832E3AE0932E77
:1025B000D8018D918D018A3040F5F50102C0EE0FF2
:1025C000FF1F8A95E2F7CF010E947806D7015C9041
:1025D00061E0852D0E94B400C0900501D0900601F5
:1025E000C6010E94000160E0852D0E94B40090E0C9
:1025F00080E00E947806B0EFCB16BAE0DB0628F444
:10260000C4018C199D090E940001EFEFEE1AFE0A29
:102610006016710669F60E942D0A80E090E0892B11
:1026200009F4C7CC0E94A901882309F4C2CC0E94F6
:102630000000BACC21E0269FA001279F500D561B19
:102640001124CA01885E9B4186CF053011056CF0CC
:10265000992493940A30110574F083E0982E033284
:1026600011054CF4B2E09B2E06C0992493940330DC
:1026700011050CF4D2C0023311050CF0D1C0980141
:1026800022503109A0ECB9EF0E94571520E330E049
:1026900040E050E00E94CC1489010053184F1E14F2
:1026A0001F040CF0C7C08091B7018111BCC080919C
:1026B000B5019091B601181619060CF0B4C0670167
:1026C0008E159F050CF46C0126E030E0D6010E94C7
:1026D0005F15270155944794052C000C6608770870
:1026E000640D751D861D971D97010F2C000C440B62
:1026F000550B0E94CC14CD2819F0222309F496C062
:10270000273008F026E0FE01319690E080E046E0B8
:1027100050E0421B5109DE01841795070CF088C078
:1027200056966D907D908C906192719281920196F7
:102730008630910581F70E9430012801110F66084B
:102740007708A30192010E94FE149B01AC01A3E053
:10275000B0E00E94EB14A30192010E94FE14822EAD
:1027600010E000E0E2E06E2EF3E07F2E882D87FE81
:1027700002C083E0880D1E141F041CF0562D581B48
:10278000852FCC24CA94D12C002E02C0D594C79496
:102790000A94E2F7A82EB12C9501220F331F2A0DBF
:1027A0003B1DF901EB52FE4FA1E0B0E0AC0FBD1FA5
:1027B0002A0F3B1FD9012D913D914C9120833183EC
:1027C0004283879DC00111246C2D8B529E4F0E9425
:1027D0004C0285E090E08A199B099C01220F331F6F
:1027E000280F391FC9018B529E4FE1E0F0E0EC0F3A
:1027F000FD1F2E0F3F1FD9012D913D914C91FC01E2
:102800002083318342836C2D0E944C020F5F1F4F47
:102810008A94091508F4AACFB2CE00ED17E03FCF95
:1028200000E911E03CCFD12CC12C4ECF21E06BCF81
:10283000539677CFFE0131962D8D3E8D4F8D21938E
:1028400031934193498D5A8DE417F507A9F773CF5A
:102850008F929F92AF92BF92CF92DF92EF92FF92B0
:10286000CF93DF93EC01688179818A819B81611527
:1028700071058105910521F464E279ED8BE597E01E
:102880002DE133EF41E050E00E94CC1449015A01A0
:102890009B01AC01A7EAB1E40E94EB146B017C013F
:1028A000ACEEB4EFA50194010E94F914C60ED71E38
:1028B000E81EF91EF7FE06C081E0C81AD108E1083B
:1028C00080E8F80AC882D982EA82FB82C701B60191
:1028D0009F77DF91CF91FF90EF90DF90CF90BF90E7
:1028E000AF909F908F9008958F929F92AF92BF92DA
:1028F000CF92DF92EF92FF9260910D0170910E01E5
:1029000080910F019091100161157105810591056C
:1029100021F464E279ED8BE597E02DE133EF41E0BE
:1029200050E00E94CC1449015A019B01AC01A7EA76
:10293000B1E40E94EB146B017C01ACEEB4EFA50195
:1029400094010E94F914C60ED71EE81EF91EF7FE68
:1029500006C081E0C81AD108E10880E8F80AC092F0
:102960000D01D0920E01E0920F01F0921001C7010B
:10297000B6019F77FF90EF90DF90CF90BF90AF9020
:102980009F908F90089560930D0170930E01809336
:102990000F01909310010895052E97FB1EF40094EB
:1029A0000E94E31457FD07D00E94FE1407FC03D0D9
:1029B0004EF40C94E31450954095309521953F4F7B
:1029C0004F4F5F4F089590958095709561957F4F1B
:1029D0008F4F9F4F08950E942015A59F900DB49F83
:1029E000900DA49F800D911D11240895B7FF0C94A4
:1029F000EB140E94EB14821B930B0895A1E21A2E94
:102A0000AA1BBB1BFD010DC0AA1FBB1FEE1FFF1F92
:102A1000A217B307E407F50720F0A21BB30BE40BE2
:102A2000F50B661F771F881F991F1A9469F7609529
:102A30007095809590959B01AC01BD01CF010895E3
:102A4000A29FB001B39FC001A39F700D811D1124EF
:102A5000911DB29F700D811D1124911D0895AA1B17
:102A6000BB1B51E107C0AA1FBB1FA617B70710F079
:102A7000A61BB70B881F991F5A95A9F780959095AB
:102A8000BC01CD01089597FB072E16F4009407D0E2
:102A900077FD09D00E942F1507FC05D03EF49095D4
:102AA00081959F4F0895709561957F4F08950E947D
:102AB0002015332312F48A1B9B0B0C9461150E9482
:102AC0002015B7FF0895821B930B0895EE0FFF1F8B
:102AD0000590F491E02D099481E090E0F8940C9435
:062AE0007115F894FFCF10
:102AE600FFFFFF06FFF00AFFFFFFFFFFFF010000E9
:102AF60000FCD34DA78BFA22C55E003131295A1B43
:102B0600750A00000000F008F008F0082A07B30272
:102B160026072307200700000000B3054D054B05D7
:102B26002A07B302260723073C01F3020A08070611
:102B3600050400000000DF013F016C012C029D012D
:042B46007B018F017F
:00000001FF
