:100000000C945D000C9485000C9485000C94850084
:100010000C9485000C9485000C9485000C9485004C
:100020000C9485000C9485000C9485000C9485003C
:100030000C9485000C9485000C9485000C9485002C
:100040000C94000D0C9485000C94700D0C944A0DCA
:100050000C9485000C9485000C9485000C9485000C
:100060000C9485000C94850000000008000201003B
:100070000003040700000000000000000000000072
:10008000250028002B0000000000240027002A0083
:10009000040404040404040402020202020203032E
:1000A0000303030301020408102040800102040836
:1000B0001020010204081020A20D11241FBECFEF52
:1000C000D8E0DEBFCDBF11E0A0E0B1E0E8EAF7E2A2
:1000D00002C005900D92AC35B107D9F722E0ACE52E
:1000E000B1E001C01D92A738B207E1F710E0CDE5FD
:1000F000D0E004C02197FE010E94C713CC35D10780
:10010000C9F70E94E20D0C94D2130C940000EBECA2
:10011000F1E0DC012D913D914C912193319341937C
:10012000B1E0ED3DFB07A9F7089590E0FC01EC5527
:10013000FF4F249180579F4FFC018491882399F0B1
:1001400090E0880F991FFC01EA57FF4FA591B491E9
:10015000FC01E458FF4F859194918FB7F894EC918E
:10016000E22BEC938FBF089590E0FC01E859FF4F1C
:100170002491FC01EC55FF4F3491FC01E057FF4FF7
:10018000E491EE23C9F0222339F0233001F1A8F4E1
:10019000213019F1223029F1F0E0EE0FFF1FE45871
:1001A000FF4FA591B4918FB7F894EC91611126C0DF
:1001B00030953E233C938FBF08952730A9F0283017
:1001C000C9F0243049F7809180008F7D03C0809171
:1001D00080008F7780938000DFCF84B58F7784BDD8
:1001E000DBCF84B58F7DFBCF8091B0008F7780937C
:1001F000B000D2CF8091B0008F7DF9CF3E2BDACF07
:100200008230910538F0880F991F880F991F059744
:100210000197F1F708953FB7F8948091C701909145
:10022000C801A091C901B091CA0126B5A89B05C01B
:100230002F3F19F00196A11DB11D3FBFBA2FA92F65
:10024000982F8827BC01CD01620F711D811D911D62
:1002500042E0660F771F881F991F4A95D1F70895CE
:100260002FB7F8946091C3017091C4018091C501CA
:100270009091C6012FBF089580E991E00895AF9253
:10028000BF92CF92DF92EF92FF920F931F93CF9383
:10029000DF936C017B018B01040F151FEB015E01E5
:1002A000AE18BF08C017D10759F06991D601ED917A
:1002B000FC910190F081E02DC6010995892B79F719
:1002C000C501DF91CF911F910F91FF90EF90DF90CB
:1002D000CF90BF90AF900895FC01538D448D252F92
:1002E00030E0842F90E0821B930B541710F0CF96D0
:1002F000089501970895FC01918D828D981761F002
:10030000A28DAE0FBF2FB11D5D968C91928D9F5F18
:100310009F73928F90E008958FEF9FEF0895FC01F7
:10032000918D828D981731F0828DE80FF11D858DAA
:1003300090E008958FEF9FEF0895FC01918D228D3D
:10034000892F90E0805C9F4F821B91098F739927C2
:1003500008958DED91E00E949D0121E0892B09F423
:1003600020E0822F089580E090E0892B29F00E9400
:10037000A90181110C9400000895FC01A48DA80F1F
:10038000B92FB11DA35ABF4F2C91848D90E00196D7
:100390008F739927848FA689B7892C93A089B189F7
:1003A0008C91837080648C93938D848D981306C098
:1003B0000288F389E02D80818F7D80830895EF92FC
:1003C000FF920F931F93CF93DF93EC0181E0888F0F
:1003D0009B8D8C8D98131AC0E889F989808185FFDF
:1003E00015C09FB7F894EE89FF896083E889F98981
:1003F00080818370806480839FBF81E090E0DF9183
:10040000CF911F910F91FF90EF900895F62E0B8DD5
:1004100010E00F5F1F4F0F731127E02E8C8D8E1190
:100420000CC00FB607FCFACFE889F989808185FFF7
:10043000F5CFCE010E94BD01F1CFEB8DEC0FFD2F6A
:10044000F11DE35AFF4FF0829FB7F8940B8FEA89B2
:10045000FB8980818062CFCFCF93DF93EC01888DC1
:100460008823B9F0AA89BB89E889F9898C9185FD2F
:1004700003C0808186FD0DC00FB607FCF7CF8C91BD
:1004800085FFF2CF808185FFEDCFCE010E94BD01B7
:10049000E9CFDF91CF910895FC018081869F080EFE
:1004A00080E0811D80838181869F080E80E0811D10
:1004B00081838281869F080E80E0811D82831124C2
:1004C000CF010895AF92BF92CF92DF92EF92FF9249
:1004D0000F931F93CF93DF9300D01F92CDB7DEB75A
:1004E0005A0119821A821B82882361F18B01E1E093
:1004F000F0E0E82EF12CD8012D918D012223F1F0AE
:100500006F01B1E0CB1AD108D501AC0DBD1D4C91E6
:100510004423A1F030E02F5F3F4FD7010E948113A9
:10052000A42FB0E011969B01AC010E944C13A1E0F6
:10053000B0E0AC0FBD1FAC0DBD1D8C933196E43007
:10054000F105C9F669817A818B810F900F900F9028
:10055000DF91CF911F910F91FF90EF90DF90CF909F
:10056000BF90AF90089581E090E008950F931F939E
:10057000CF93DF9320917F012F5F322F377030931D
:100580007F0120FF2BC020E831FD2064347009F08A
:100590002062205FFC01EC01239600E011E06785FA
:1005A000662329F070E0C8010E94A4136F5F618781
:1005B000822F869F080E80E0811D1124811110C0BA
:1005C0001682662311F0615061873196EC17FD07A2
:1005D00031F7DF91CF911F910F91089520E0D4CF93
:1005E00081508683EECF4F925F927F928F929F923F
:1005F000AF92BF92CF92DF92EF92FF920F931F9331
:10060000CF93DF932C01EB010E940B01F2012689AD
:100610003789621B730B6A307105B0F3F8948A81D5
:100620009B81181619060CF0CBC1E881F98105B140
:10063000086075B1777F75B9BA848F812B2D281B1F
:10064000822F2F834C85042E000C550BAA81BB8171
:10065000E888DF84C988E394D394C3949E81388565
:1006600099848B84118120E0F32E622F322F318107
:10067000112788943111380F08F43FEF8195889441
:10068000E0FC130F17958894E1FC130F17958894DD
:10069000E2FC130F17958894E3FC130F17958894C9
:1006A000E4FC130F17958894E5FC130F17958894B5
:1006B000E6FC130F17958894E7FC130F17958894A1
:1006C000232FE110212F8B0D122F002C05B900C014
:1006D00017FF75B930812227889400C000C0002C14
:1006E00075B93111390F00C0002C05B900C016FFD3
:1006F00075B908F43FEF9195889400C000C0002CB4
:1007000075B9D0FC230F00C0002C05B900C015FF3F
:1007100075B927958894D1FC230F00C000C0002C28
:1007200075B92795889400C0002C05B900C014FF46
:1007300075B9D2FC230F2795889400C000C0002C07
:1007400075B9D3FC230F00C0002C05B900C013FFFE
:1007500075B927958894D4FC230F00C000C0002CE5
:1007600075B92795889400C0002C05B900C012FF08
:1007700075B9D5FC230F2795889400C000C0002CC4
:1007800075B9D6FC230F00C0002C05B900C011FFBD
:1007900075B927958894D7FC230F00C000C0002CA2
:1007A00075B92795889400C0002C05B900C010FFCA
:1007B00075B9132FD110122F990D00C000C0002C55
:1007C00075B900C000C0002C05B900C017FF75B98D
:1007D00032812227889400C000C0002C75B93111E5
:1007E0003F0D00C0002C05B900C016FF75B908F414
:1007F0003FEFE40FF51F00C000C0002C75B9C0FC2E
:10080000230F00C0002C05B900C015FF75B927954E
:100810008894C1FC230F00C000C0002C75B9279537
:10082000889400C0002C05B900C014FF75B9C2FC43
:10083000230F2795889400C000C0002C75B9C3FC15
:10084000230F00C0002C05B900C013FF75B9279510
:100850008894C4FC230F00C000C0002C75B92795F4
:10086000889400C0002C05B900C012FF75B9C5FC02
:10087000230F2795889400C000C0002C75B9C6FCD2
:10088000230F00C0002C05B900C011FF75B92795D2
:100890008894C7FC230F00C000C0002C75B92795B1
:1008A000889400C0002C05B900C010FF75B9132F43
:1008B000C110122FF19400C000C0002C75B9F80CC3
:1008C00000C000C005B900C017FF75B931812227EB
:1008D000889400C000C0002C75B93111380F00C0D9
:1008E000002C05B900C016FF75B908F43FEF8195DB
:1008F000889400C000C0002C75B9E0FC230F00C034
:10090000002C05B900C015FF75B927958894E1FC46
:10091000230F00C000C0002C75B92795889400C033
:10092000002C05B900C014FF75B9E2FC230F279510
:10093000889400C000C0002C75B9E3FC230F00C0F0
:10094000002C05B900C013FF75B927958894E4FC05
:10095000230F00C000C0002C75B92795889400C0F3
:10096000002C05B900C012FF75B9E5FC230F2795CF
:10097000889400C000C0002C75B9E6FC230F00C0AD
:10098000002C05B900C011FF75B927958894E7FCC4
:10099000230F00C000C0002C75B92795889400C0B3
:1009A000002C05B900C010FF75B9132FE110122FEC
:1009B0008B0D00C000C0002C75B9119709F086CED0
:1009C000EA81FB812EE130E0DF010E94C01330E0BC
:1009D00020E0A901AAE9EA9F0E0E411DFA9F400DF1
:1009E000511D11244F0F511DDC01CB01840F951FA8
:1009F000A11DB11D893E43E09407A105B10508F48E
:100A000034C0885E9340A109B10942E0B695A7952C
:100A1000979587954A95D1F747E0849F080E211D49
:100A2000949F200D311D1124290F311D60917E01ED
:100A300070E0860F971F820F931F4091C301509162
:100A4000C4016091C5017091C601292F3327420F5F
:100A5000531F611D711D4093C3015093C4016093E6
:100A6000C5017093C60180937E0178940E940B01AA
:100A7000F201778B668BDF91CF911F910F91FF90E1
:100A8000EF90DF90CF90BF90AF909F908F907F902E
:100A90005F904F900895239A08956F927F928F925E
:100AA000CF92DF92EF92FF920F931F93CF93DF933A
:100AB000CDB7DEB762970FB6F894DEBF0FBECDBFDD
:100AC0008C016B017A01822FA801475F5F4FB8014B
:100AD0006A5F7F4F0E9462023B01882ED8011C96FC
:100AE0002C91C701F7FE04C0882799278E199F090A
:100AF000DA82C9829C838B839E838D83688A798AFC
:100B00008A8A213049F5CE0101960E94B60283E01F
:100B10008D871F861E86F7FE02C08DEF8D87D80158
:100B2000ED91FC910088F189E02DBE016F5F7F4F50
:100B3000C801099562960FB6F894DEBF0FBECDBF0F
:100B4000DF91CF911F910F91FF90EF90DF90CF90A9
:100B50008F907F906F9008951C861B861A86198649
:100B600018861F82D4CFCF92DF92EF92FF920F931D
:100B70001F93CF93DF93CDB7DEB762970FB6F8948C
:100B8000DEBF0FBECDBF8C016B017A01822FA801A1
:100B9000475F5F4FB8016A5F7F4F0E9462029B010F
:100BA000482FD8011C968C91DA82C982FC82EB8294
:100BB000FE82ED82288B398B4A8B813009F5CE017C
:100BC00001960E94B6021D861F861E86D801ED91F1
:100BD000FC910088F189E02DBE016F5F7F4FC80155
:100BE000099562960FB6F894DEBF0FBECDBFDF91B8
:100BF000CF911F910F91FF90EF90DF90CF900895CC
:100C00001C861B861A86198618861F82DCCF0895DB
:100C1000CF93DF938FEF8093070180930801809338
:100C2000090180930A0180930B0180930C012091AC
:100C3000A801C4EAD1E0A0E6B1E080E0281751F0B5
:100C4000E9919D910E2E000CFF0BE95FFE4F908302
:100C50008F5FF4CFDF91CF910895E82F809100014D
:100C60009091010197FF04C01092A8010C9408060E
:100C70004091A8018436910534F123E02093A80126
:100C800021E0209360012AE030E0B9010E94A41322
:100C9000F82FCB01B9010E94A41380936101F09356
:100CA00062012091A801E11102C02417F9F296E037
:100CB000921BE4EAF1E080E02817C1F2382F390FE7
:100CC00031938F5FF9CF8A30910564F022E0209351
:100CD000A8016AE070E00E94A41360936001809311
:100CE0006101DFCF91E09093A80180936001D9CF9B
:100CF000EF92FF920F931F93CF93DF937C010FE04E
:100D000010E0C3E0D0E0B701002E02C076956795F1
:100D10000A94E2F761708EE00E94B40061E081E124
:100D20000E94B400CE010197F1F760E081E10E94DA
:100D3000B400CE010197F1F70150110920F761E0ED
:100D40008FE00E94B4002197F1F760E08FE0DF911F
:100D5000CF911F910F91FF90EF900C94B4003F92B0
:100D60004F925F926F927F928F929F92AF92BF92BB
:100D7000CF92DF92EF92FF920F931F93CF93DF9367
:100D80004B015C010E9430016B017C0190EF492E08
:100D90009AE0592E0E9430016C197D098E099F0935
:100DA000681579058A059B05C8F587E0682E81E0FE
:100DB000782EC3E4D1E0F30181913F018A3038F508
:100DC00021E030E002C0220F331F8A95E2F7C9010B
:100DD0000E947806388061E0832D0E94B400009163
:100DE000050110910601C8010E94000160E0832DF9
:100DF0000E94B40090E080E00E947806003F3AE054
:100E0000130728F4C201801B910B0E940001219658
:100E10008DE0681681E0780671F6BCCFDF91CF9146
:100E20001F910F91FF90EF90DF90CF90BF90AF9008
:100E30009F908F907F906F905F904F903F9008951C
:100E400090E080E00895FC0164870895FC018485AA
:100E500090E00895FC01868597850895FF920F9391
:100E60001F93CF93DF93EC01F62E6E857F85E8818B
:100E7000F9810284F385E02D09958C018D85882305
:100E800061F04E855F856A817B81E881F98102800E
:100E9000F381E02D2F2DCE010995E881F98104849D
:100EA000F585E02DB801CE01DF91CF911F910F9113
:100EB000FF900994CF93DF9300D01F92CDB7DEB798
:100EC00019821A821B82CE0101960E9487008091AE
:100ED00000019091010184369105B4F0198280E8F7
:100EE0008A831B82CE0101960E94870060910401D3
:100EF0008091A9019091AA010E942E070F900F9056
:100F00000F90DF91CF91089597FDF0CF489669E15A
:100F100070E00E94A413662339F080E890E063300B
:100F200030F48FEF623011F061E080E09FEFEBEC86
:100F3000F1E020E09083818312822F5F33962613A5
:100F4000F9CFD4CFCF92DF92EF92FF920F931F93FE
:100F5000CF93DF938091BD01813009F017C12091BB
:100F60006301309164012333310514F022E330E052
:100F7000A0EABFEF0E94B81322E330E040E050E067
:100F80000E942D13205AD22FDD0FDD0FDD0F35E526
:100F9000CD2FC39F0C0EC0E0C11D1124922F907461
:100FA000822F807227FD50C091113AC0811106C076
:100FB0009C2F9095FC2EC92FD0E005C035E5F32E6F
:100FC000FC0ED0E0CBEA009100011091010120E07D
:100FD00017FD0BC020E630E0D8010E94C01324E6C4
:100FE00030E040E050E00E942D13322F330F330FDA
:100FF000330F95E5832F899F080E80E0811D112412
:10100000522F5074422F407227FD9AC0511186C052
:1010100041113CC0982F9095282F892F90E03AC01D
:1010200081110CC09AEAD99F0D0ED0E0D11D112478
:101030009BEA9D1B2AEAF22EFC0EBDCF80E0FC2E1F
:10104000F094DC2FC0E0BFCF911111C081110BC013
:101050008AEAD89F0D0ED0E0D11D11248BEAF82E1C
:10106000FD1ADB5AEFCFDC2FD095F12CACCF8111DC
:1010700006C095E59C0FDBEADC1BC92FF6CF8AEA98
:101080008C0F90E0D32FDC1BC82FEFCF25E5280F66
:1010900090E08BEAC093D101F092D201D093D301BA
:1010A000C090D101D090D201E090D301C092CE0186
:1010B000D092CF01E092D001C092CB01D092CC016E
:1010C000E092CD01043611050CF459C08093D4018F
:1010D0002093D5019093D6018093DA012093DB0110
:1010E0009093DC018091DA019091DB01A091DC0109
:1010F0008093D7019093D801A093D9016091040106
:101100008091A9019091AA01DF91CF911F910F9138
:10111000FF90EF90DF90CF900C942E0741110AC002
:101120002AEA329F030E30E0311D11249BEA931B03
:10113000280F73CF90E0282F2095982F80E0AACF1A
:10114000511111C041110BC0932F8AEA989F090ECB
:1011500090E0911D11242BEA291B9B5AEFCF982F69
:10116000909520E097CF411106C025E5280F9BEA16
:10117000981B822FF6CF2AEA280F30E0F9CF109281
:10118000D4011092D5011092D601A6CFDF91CF9154
:101190001F910F91FF90EF90DF90CF900C945A0722
:1011A000282F86FD2095E22FEF732F7086FD2F5F8D
:1011B000E695E695E695E670F0E0EF5EFE4F9181EC
:1011C000929F902D212D112492959F702295207F22
:1011D000922B2081920F87FD919580E8890F0895C9
:1011E0000E94CD132F923F924F925F926F927F9207
:1011F0008F929F92AF92BF92CF92DF92EF92FF9227
:101200000F931F93CF93DF93CDB7DEB7C254D109AD
:101210000FB6F894DEBF0FBECDBF47E051E05EAF22
:101220004DAF8E010F5C1F4FD801FA0181918D9354
:1012300051E0ED30F507D1F7F12C24EF2F0DF80137
:10124000A7E0B1E08F2D87FF00C190819D93825070
:1012500031968213F8CF66E970E080E090E00E945A
:10126000AF06F39484E1F812E8CF0E9430012B011D
:101270003C01DE0111962196BFAFAEAF21976E0102
:10128000BDE3CB0ED11C47E0242E41E0342EFE01FD
:1012900079962396FFAFEEAF2397AE01495C5F4F7F
:1012A0007A015CEB852E52E0952EA12CB12CD70152
:1012B000E9E0ED937D010E94D512A50194010E9401
:1012C0002D1360577E4F8F4F9F4F2196AEADBFAD10
:1012D00021976D937D938D939D932196BFAFAEAF74
:1012E0002197640D751D861D971D2396EEADFFADEC
:1012F000239761937193819391932396FFAFEEAF00
:101300002397D101E9E0ED931D01EC14FD0479F67A
:101310000E9430014B015C01FE017996AE01495CEF
:101320005F4F1A0190E080E0F12CD1012D911D0159
:10133000222371F14080518062807380841495046F
:10134000A604B70418F12150BD0161507109DB01F9
:101350002C93BC01660F771F660F771F41E050E0AA
:101360004C0F5D1F640F751FDB014D915D916D91F9
:101370007C91440D551D661D771D4083518362830A
:101380007383AC01495F5E4FDA012C93FF24F39421
:10139000019634968630910541F66EE170E080E06A
:1013A00090E00E94AF06F110B3CF60E971E080E0F9
:1013B00090E00E94AF06F12CE12C4801B6E08B0EC4
:1013C000911CE7E0F1E05801D5018D915D018A3073
:1013D00008F041C090E0E816F9060CF4C7018193CB
:1013E0008A149B0489F760E570E080E090E00E9439
:1013F000AF06BFEFEB1AFB0AEAE0EE16F10409F7BD
:10140000D8018D918D01EDADFEAD8193FEAFEDAFB5
:10141000AA16BB06A9F7CE5BDF4F0FB6F894DEBF66
:101420000FBECDBFDF91CF911F910F91FF90EF9035
:10143000DF90CF90BF90AF909F908F907F906F90F4
:101440005F904F903F902F900895982F8A300CF422
:10145000FDCE99E0FBCE8FEFC2CF2F923F924F92FD
:101460005F926F927F928F929F92AF92BF92CF9234
:10147000DF92FF920F931F93CF93DF9300D000D0A2
:1014800000D01F92CDB7DEB731E4432E512C612C32
:10149000712C4AE0842E912C0FEFFF24FA945BE626
:1014A000252E51E0352E8DED91E00E949D01892B76
:1014B00009F48EC28DED91E00E947B0110917D01B7
:1014C0008A3009F078C2E12FF0E0EB59FE4F10822C
:1014D00089EF810F803108F0AEC186EF810F823035
:1014E00008F489C183EF810F863008F484C1E5E6F2
:1014F000F1E0819180538A3008F07DC12E163F06BD
:10150000C1F730916B018DEB830F823008F073C10E
:1015100040916501042E000C550B4053510924E6FF
:10152000249FC001259F900D112440916601042E37
:10153000000C550B405351092AE0249FB001259F10
:10154000700D1124860F971F40916701042E000C27
:10155000550B40535109840F951F8536910514F0A2
:1015600084E690E09093010180930001173009F424
:1015700045C180916C0190ED980F9A3008F03EC102
:10158000892F9CE1899F802D112480930401C12C17
:10159000193090F1CC24C39480916D01813309F00E
:1015A000C12C1C3048F140916E01042E000C550BEB
:1015B0004053510924E6249FC001259F900D11241A
:1015C00040916F01042E000C550B405351092AE045
:1015D000249FB001259F700D1124860F971F409105
:1015E0007001042E000C550B40535109840F951FB8
:1015F0009093640180936301609168014091690157
:1016000020916A0190E080E03434F9F4062E000C59
:10161000770B6053710934E6369FC001379F900DF8
:101620001124042E000C550B405351093AE0349F0D
:10163000B001359F700D1124860F971F022E000CEC
:10164000330B20533109820F931F9093AF01809386
:10165000AE01133108F48CC081E090917101953492
:1016600009F080E08093AD0120917201022E000C00
:10167000330B2053310954E6529FC001539F900D04
:10168000112420917301022E000C330B20533109D9
:101690004AE0429FB001439F700D1124860F971FAF
:1016A00020917401022E000C330B20533109820F5C
:1016B000931F9093AC018093AB0120917501022E92
:1016C000000C330B20533109529FC001539F900DE2
:1016D000112420917601022E000C330B2053310986
:1016E000429FB001439F700D1124860F971F2091D8
:1016F0007701022E000C330B20533109820F931F08
:101700009093B1018093B001133191F180917801F0
:1017100090ED980F9A3080F4082E000C990BC0972A
:101720004AEF489F9001499F300D1124285A3D4FA0
:1017300030930601209305011431D1F08091790195
:101740008053853050F49091B801981731F0809310
:10175000B801811102C00E94A207163149F480919C
:101760007A019FEC980F993018F48053809303010D
:10177000C092BD016C2D83E00E94B40021E0C21232
:1017800056C0F0920A01F0920B01F0920C012091E8
:10179000630130916401283E43E0340794F56FEF14
:1017A000243631052CF0C90164E670E00E94A413D0
:1017B00060930701C901B4010E94A413282FCB0133
:1017C000B4010E94A4138093080120930901209181
:1017D00000013091010124363105B4F081E080939D
:1017E0000A0110920B0110920C018091B801811135
:1017F00002C00E94A20710927D0155CEF092040112
:10180000C6CE27EE33E0CFCF37FDEFCF6FEF2A30D4
:10181000310524F0C901B4010E94A41360930B01A7
:10182000C901B4010E94A41380930C01DECF80E0B3
:101830000E942D06DACF113009F0ACC0809165010D
:10184000883509F0A1C00E9430015B016C010E9443
:1018500030016A197B098C099D09683B7B40810531
:10186000910510F50E9430016A197B098C099D09C8
:10187000A30192010E945F13E7E0F1E030E02750FE
:101880003140C9018E0F9F1FB4010E94A4138193A0
:101890008DE091E08E179F07A1F761E470E080E092
:1018A00090E00E94AF06D3CFA0900001B09001015C
:1018B000D12CC12CD0920101C092000181E00E9484
:1018C0002D060E945A076DE270E080E090E00E94D1
:1018D000AF069FEFC91AD90A25E6C216D10451F7FF
:1018E00060EB74E080E090E00E94AF060E9430015F
:1018F0006C837D838E839F8311E0D12C0E94300105
:101900002C813D814E815F81621B730B840B950B93
:10191000683B7B408105910568F5F9821A821B823C
:10192000CE0101960E9487008D2D0D2C000C990B85
:10193000FC01EE0FFF1FE80FF91FE553FE4F108269
:1019400011820283609104018091A9019091AA0102
:101950000E942E0760EA70E080E090E00E94AF06EF
:10196000D10E44E04D1524F01D1444F211E0C6CF11
:101970001FEFC4CFB0920101A092000181E00E944C
:101980002D060E945A0737CF833509F034CF0E94C5
:10199000F20831CF123009F02ECF809165018134E9
:1019A00009F029CF809166018053853008F023CF5C
:1019B0008093B8011CCF173108F01DCF91E0910F33
:1019C00090937D01E12FF0E0EB59FE4F80836BCDCA
:1019D00027960FB6F894DEBF0FBECDBFDF91CF9133
:1019E0001F910F91FF90DF90CF90BF90AF909F908D
:1019F0008F907F906F905F904F903F902F900895C1
:101A00001F920F920FB60F9211242F933F938F9333
:101A10009F93AF93BF938091C3019091C401A09114
:101A2000C501B091C6013091C20123E0230F2D37CB
:101A300058F50196A11DB11D2093C2018093C301E9
:101A40009093C401A093C501B093C6018091C701D2
:101A50009091C801A091C901B091CA010196A11D40
:101A6000B11D8093C7019093C801A093C901B093A1
:101A7000CA01BF91AF919F918F913F912F910F908C
:101A80000FBE0F901F90189526E8230F0296A11DF8
:101A9000B11DD2CF1F920F920FB60F9211242F9328
:101AA0003F934F935F936F937F938F939F93AF93E6
:101AB000BF93EF93FF938DED91E00E94BD01FF91E5
:101AC000EF91BF91AF919F918F917F916F915F91B6
:101AD0004F913F912F910F900FBE0F901F9018952F
:101AE0001F920F920FB60F9211242F938F939F93F3
:101AF000EF93FF93E091ED01F091EE018081E09191
:101B0000F301F091F40182FD1BC090818091F601F8
:101B10008F5F8F732091F701821741F0E091F601FA
:101B2000F0E0E352FE4F958F8093F601FF91EF9125
:101B30009F918F912F910F900FBE0F901F9018952E
:101B40008081F4CFEDEDF1E01382128288EE93E014
:101B5000A0E0B0E084839583A683B7838DE491E011
:101B60009183808385EC90E09587848784EC90E076
:101B70009787868780EC90E0918B808B81EC90E05A
:101B8000938B828B82EC90E0958B848B86EC90E03B
:101B9000978B868B118E128E138E148EEAE7F2E0ED
:101BA0008FEF808312821182148613868FEF9FEF4E
:101BB000DC0187839087A187B28713821482158204
:101BC00016820895CF93DF9300D000D000D0CDB718
:101BD000DEB7789484B5826084BD84B5816084BDAD
:101BE00085B5826085BD85B5816085BD80916E00BB
:101BF000816080936E0010928100809181008260EC
:101C00008093810080918100816080938100809128
:101C100080008160809380008091B1008460809317
:101C2000B1008091B00081608093B00080917A0013
:101C3000846080937A0080917A00826080937A0039
:101C400080917A00816080937A0080917A00806828
:101C500080937A001092C100E091ED01F091EE01C5
:101C600082E08083E091ED01F091EE011082E0913D
:101C7000E901F091EA011082E091EB01F091EC01B1
:101C800080E180831092F501E091F101F091F20181
:101C900086E08083E091EF01F091F0018081806126
:101CA0008083E091EF01F091F00180818860808372
:101CB000E091EF01F091F001808180688083E091F4
:101CC000EF01F091F00180818F7D80838EE00E9492
:101CD000950081E10E9495008FE00E94950060E0F0
:101CE0008EE00E94B40060E081E10E94B40060E0F8
:101CF0008FE00E94B40080E10E94950060E080E1E6
:101D00000E94B40083E00E94950060E083E00E949E
:101D1000B40059E4C52E51E0D52E03E411E0F801DA
:101D2000F1908F018F2D0E94950060E08F2D0E9411
:101D3000B400C016D10699F790E080E00E947806C2
:101D40008FEF91E090938700809386001092890036
:101D50001092880082E88093800089E1809381005E
:101D6000219A10E000E010938900009388000E94FF
:101D70000B014B015C0144E1C42ED12CE12CF12C70
:101D80000E940B01681979098A099B09683E734012
:101D900081059105A8F3F1E0CF1AD108E108F10817
:101DA00028EE820E23E0921EA11CB11CC114D104A6
:101DB000E104F10429F70F5F1F4F013441E01407DC
:101DC00091F680919C01811157C010928701109269
:101DD00086018FEF80938A0180938B0180938C0121
:101DE00080938D0180938E0180938F0181E0809399
:101DF000900180939101109293011092920180E7DB
:101E000097E1909395018093940183E090E0909303
:101E10009701809396011092990110929801109267
:101E20008901109288018091820190918301892B10
:101E300031F484E891E09093830180938201E091F2
:101E40008001F0918101309721F084E891E0958341
:101E5000848384E891E090938101809380011092C3
:101E60009B0110929A0181E391E090938501809308
:101E7000840181E080939C01239A8BEC91E0909304
:101E800087018093860186E090E090939301809390
:101E9000920180917D0290917E02A0917F02B0918B
:101EA0008002843C59E09507A105B10520F484EC3B
:101EB00099E0A0E0B0E080937D0290937E02A09331
:101EC0007F02B093800284E891E09093AA0180930E
:101ED000A90119821A821B82CE0101960E948700F5
:101EE0006FEF84E891E00E942E0786E480937C00E7
:101EF00080917A00806480937A0080917A0086FDD8
:101F0000FCCFC0907800D09079000D2C000CEE082A
:101F1000FF080E940B018B019C01C701B6016027DD
:101F2000712782279327C016D106E206F30611F027
:101F30000E9424130E9430016093BE017093BF0180
:101F40008093C0019093C1016093B9017093BA016D
:101F50008093BB019093BC01AA24AA940E942D0AED
:101F60000E9430016B017C018091BE019091BF0104
:101F7000A091C001B091C10197018601081B190B06
:101F80002A0B3B0BD901C801803C9742A940B105FF
:101F900008F46CC0C092BE01D092BF01E092C001B3
:101FA000F092C1010E94F2081091B801112309F4C6
:101FB0008BC18091B4019091B501A091B601B0910F
:101FC000B701A7019601281B390B4A0B5B0BDA01FD
:101FD000C9018897A105B10508F476C1C092B40182
:101FE000D092B501E092B601F092B70119821A823F
:101FF0001B82CE0101960E948700113009F0C8C0F3
:102000000BEC11E0F12C30E8E32E8091B2019091BD
:10201000B30196958795969587958F0D0E94D00868
:10202000F8011082E1821282843108F484E1682F81
:10203000C8010E944C02F6EDFF0E0D5F1F4F24E019
:10204000F212E3CF609104018091A9019091AA015D
:102050000E942E078091030190E0880F991F209124
:10206000B2013091B301820F931F2AC14091BD018B
:1020700041119ACF8091B9019091BA01A091BB0111
:10208000B091BC0197018601081B190B2A0B3B0B71
:10209000D901C80188389341A105B10508F484CF5E
:1020A000C092B901D092BA01E092BB01F092BC019A
:1020B000F091A801FF2309F477CFE091020170901D
:1020C000A701BB24B3948091A40118160CF0B12C85
:1020D0000F2F10E0480121E0821A9108272D072CCC
:1020E000000C330BE7FF28C0C9010196B8010E941C
:1020F000A413772009F449C0D901AC55BE4F6C91A7
:10210000062E000C770B615071091197AC910A2EC5
:10211000000CBB0BA617B707FCF091E0940F782ECC
:10212000F91308C0E195E0930201E7FD40E0409318
:10213000A7013ACF492FD2CFC801820F931F019731
:10214000B8010E94A413D901AC55BE4F6C91821600
:10215000930669F465300CF78093A701D901AC555B
:10216000BE4F8C91E80FEC930E9408061DCF062EFF
:10217000000C770B6F5F7F4F1196AC910A2E000C0D
:10218000BB0B6A177B0744F3C8CFBB2031F2E4CF07
:10219000123079F58091B2019091B301B5E0969536
:1021A0008795BA95E1F769E070E00E949013E82EF8
:1021B0000BEC11E0F12C80E8D82EEF1498F08E2D66
:1021C0008F19843078F4F8011082D1821282880F3E
:1021D0006FEF70E002C0759567958A95E2F7C801C8
:1021E0000E944C02F3940D5F1F4FF6E0FF12E5CF03
:1021F00029CF1330C9F48091B2019091B301A6E0C8
:1022000096958795AA95E1F78770EBECF1E090E061
:1022100020E8891709F416CF1082218312829F5F6C
:1022200033969630B1F70ECF143009F00BCF809073
:10223000B0019090B1016090AE017090AF018091BB
:10224000AD010091AB011091AC01882311F010E0B9
:1022500000E0C301072C000CAA0BBB0B6401092C86
:10226000000CEE08FF08C80ED91EEA1EFB1EC801AE
:10227000012E000CAA0BBB0BC80ED91EEA1EFB1EBA
:102280002091A9013091AA013D832C833091040152
:102290003E831C141D041E041F040CF463C0198229
:1022A0001A821B82CE0101960E9487006E818C816A
:1022B0009D810E942E078091B2019091B3010896F2
:1022C0009093B3018093B20107E011E08DE0882E76
:1022D00081E0982E93E4E92E91E0F92EF8018191A6
:1022E0008F018A3050F521E030E002C0220F331F09
:1022F0008A95E2F7C9010E947806F701B08061E093
:102300008B2D0E94B400C0900501D0900601C6013B
:102310000E94000160E08B2D0E94B40090E080E0FC
:102320000E947806F0EFCF16FAE0DF0630F480EF77
:102330009AE08C199D090E9400012FEFE21AF20A1F
:102340008016910659F60E942D0A80E090E0892BB4
:1023500009F404CE0E94A901882309F4FFCD0E944C
:102360000000FACD26E030E0D4010E94C01316012F
:1023700027015594479437942794620D731D841D4B
:10238000951DA70196010E942D13B22E26E030E084
:10239000D3010E94C013620D731D841D951DA701FA
:1023A00096010E942D131814190424F4B11002C0D0
:1023B000BB24B394161417041CF4211101C021E0AE
:1023C0004B2D420F5527551F473051052CF02B152B
:1023D000A0F586E0B82EB21A90E01016110624F48B
:1023E0008B2D820F96E0981BEBEC8E2EE1E09E2E5B
:1023F000F40180E0B81224C053E0859FF00111245D
:10240000E553FE4F280F281324C043E0849FF001BA
:102410001124E553FE4F980F20EA891322C053E0A0
:10242000859FF0011124E553FE4F863010F58F5F34
:102430001082118212823396F8CF26E02B19CCCF6E
:102440008630D1F28F5FA08234EB318312823396D3
:10245000D1CF8630D0F68F5F1082A1821282339660
:10246000D2CF863030F48F5F20831182A2823396E0
:10247000D4CFB12C8091B2019091B30196958795FC
:1024800096958795061517050CF041C08B0D0E9497
:10249000D008863408F486E4682FC4010E944C02F8
:1024A00083E0880E911C9AE2B90EECEFBE12E2CFE7
:1024B0006E818C819D810E942E07A7019601253691
:1024C00031054105510524F024E630E040E050E0BC
:1024D000A8E1B0E00E944C1324E630E040E050E078
:1024E0000E942D1390910301892F90E0B0E0A0E0AD
:1024F000880F991FAA1FBB1F820F931FA41FB51F10
:102500004091B2015091B301840F951FD9CE8B1920
:10251000BECF8F929F92AF92BF92CF92DF92EF92F7
:10252000FF92CF93DF93EC01688179818A819B814F
:10253000611571058105910521F464E279ED8BE562
:1025400097E02DE133EF41E050E00E942D13490167
:102550005A019B01AC01A7EAB1E40E944C136B0144
:102560007C01ACEEB4EFA50194010E945A13C60E93
:10257000D71EE81EF91EF7FE06C081E0C81AD10872
:10258000E10880E8F80AC882D982EA82FB82C701A2
:10259000B6019F77DF91CF91FF90EF90DF90CF90C2
:1025A000BF90AF909F908F9008958F929F92AF921F
:1025B000BF92CF92DF92EF92FF9260910D017091E6
:1025C0000E0180910F019091100161157105810537
:1025D000910521F464E279ED8BE597E02DE133EF8D
:1025E00041E050E00E942D1349015A019B01AC01CA
:1025F000A7EAB1E40E944C136B017C01ACEEB4EF8E
:10260000A50194010E945A13C60ED71EE81EF91E9A
:10261000F7FE06C081E0C81AD108E10880E8F80A90
:10262000C0920D01D0920E01E0920F01F0921001C4
:10263000C701B6019F77FF90EF90DF90CF90BF90DA
:10264000AF909F908F90089560930D0170930E014D
:1026500080930F01909310010895052E97FB1EF4AF
:1026600000940E94441357FD07D00E945F1307FC9B
:1026700003D04EF40C944413509540953095219519
:102680003F4F4F4F5F4F089590958095709561959E
:102690007F4F8F4F9F4F08950E948113A59F900DEC
:1026A000B49F900DA49F800D911D11240895B7FF34
:1026B0000C944C130E944C13821B930B0895A1E2BF
:1026C0001A2EAA1BBB1BFD010DC0AA1FBB1FEE1FAC
:1026D000FF1FA217B307E407F50720F0A21BB30BF7
:1026E000E40BF50B661F771F881F991F1A9469F773
:1026F00060957095809590959B01AC01BD01CF01CF
:102700000895A29FB001B39FC001A39F700D811DCA
:102710001124911DB29F700D811D1124911D0895EA
:10272000AA1BBB1B51E107C0AA1FBB1FA617B707F7
:1027300010F0A61BB70B881F991F5A95A9F7809513
:102740009095BC01CD01089597FB072E16F40094D7
:1027500007D077FD09D00E94901307FC05D03EF406
:10276000909581959F4F0895709561957F4F08953D
:102770000E948113332312F48A1B9B0B0C94C21307
:102780000E948113B7FF0895821B930B0895EE0FEB
:10279000FF1F0590F491E02D099481E090E0F894FA
:0827A0000C94D213F894FFCF52
:1027A800FFFFFF06FFF00AFFFFFFFFFFFF0100002A
:1027B80000003131295A1B750A00000000F008F0AA
:1027C80008F0082A07B3022607230720070000009D
:1027D80000B3054D054B052A07B302260723073C1E
:1027E80001F3020A080706050400000000DF013FA4
:0C27F800016C012C029D017B018F01008F
:00000001FF
