:020000040000FA
:100000000C945D000C9485000C9485000C94850084
:100010000C9485000C9485000C9485000C9485004C
:100020000C9485000C9485000C9485000C9485003C
:100030000C9485000C9485000C9485000C9485002C
:100040000C94B50C0C9485000C94250D0C94FF0CAD
:100050000C9485000C9485000C9485000C9485000C
:100060000C9485000C94850000000008000201003B
:100070000003040700000000000000000000000072
:10008000250028002B0000000000240027002A0083
:10009000040404040404040402020202020203032E
:1000A0000303030301020408102040800102040836
:1000B0001020010204081020570D11241FBECFEF9D
:1000C000D8E0DEBFCDBF11E0A0E0B1E0E0EDF6E2A8
:1000D00002C005900D92AA35B107D9F722E0AAE532
:1000E000B1E001C01D92A338B207E1F710E0CDE501
:1000F000D0E004C02197FE010E945B13CC35D107EC
:10010000C9F70E94970D0C9466130C940000E7EC5D
:10011000F1E0DC012D913D914C912193319341937C
:10012000B1E0E93DFB07A9F7089590E0FC01EC552B
:10013000FF4F249180579F4FFC018491882399F0B1
:1001400090E0880F991FFC01EA57FF4FA591B491E9
:10015000FC01E458FF4F859194918FB7F894EC918E
:10016000E22BEC938FBF089590E0FC01E859FF4F1C
:100170002491FC01EC55FF4F3491FC01E057FF4FF7
:10018000E491EE23C9F0222339F0233001F1A8F4E1
:10019000213019F1223029F1F0E0EE0FFF1FE45871
:1001A000FF4FA591B4918FB7F894EC91611126C0DF
:1001B00030953E233C938FBF08952730A9F0283017
:1001C000C9F0243049F7809180008F7D03C0809171
:1001D00080008F7780938000DFCF84B58F7784BDD8
:1001E000DBCF84B58F7DFBCF8091B0008F7780937C
:1001F000B000D2CF8091B0008F7DF9CF3E2BDACF07
:100200003FB7F8948091C3019091C401A091C501BA
:10021000B091C60126B5A89B05C02F3F19F00196E5
:10022000A11DB11D3FBFBA2FA92F982F8827BC0150
:10023000CD01620F711D811D911D42E0660F771F78
:10024000881F991F4A95D1F708952FB7F8946091A8
:10025000BF017091C0018091C1019091C2012FBF77
:10026000089580E991E00895AF92BF92CF92DF9216
:10027000EF92FF920F931F93CF93DF936C017B015B
:100280008B01040F151FEB015E01AE18BF08C017EC
:10029000D10759F06991D601ED91FC910190F0815F
:1002A000E02DC6010995892B79F7C501DF91CF9122
:1002B0001F910F91FF90EF90DF90CF90BF90AF9084
:1002C0000895FC01538D448D252F30E0842F90E05C
:1002D000821B930B541710F0CF9608950197089541
:1002E000FC01918D828D981761F0A28DAE0FBF2F0A
:1002F000B11D5D968C91928D9F5F9F73928F90E060
:1003000008958FEF9FEF0895FC01918D828D9817CE
:1003100031F0828DE80FF11D858D90E008958FEF0B
:100320009FEF0895FC01918D228D892F90E0805CD4
:100330009F4F821B91098F739927089589ED91E052
:100340000E94920121E0892B09F420E0822F089578
:1003500080E090E0892B29F00E949E0181110C948D
:1003600000000895FC01A48DA80FB92FB11DA35A58
:10037000BF4F2C91848D90E001968F739927848FC5
:10038000A689B7892C93A089B1898C9183708064E8
:100390008C93938D848D981306C00288F389E02D89
:1003A00080818F7D80830895EF92FF920F931F933A
:1003B000CF93DF93EC0181E0888F9B8D8C8D981318
:1003C0001AC0E889F989808185FF15C09FB7F89424
:1003D000EE89FF896083E889F98980818370806470
:1003E00080839FBF81E090E0DF91CF911F910F91BB
:1003F000FF90EF900895F62E0B8D10E00F5F1F4FCA
:100400000F731127E02E8C8D8E110CC00FB607FCD8
:10041000FACFE889F989808185FFF5CFCE010E9466
:10042000B201F1CFEB8DEC0FFD2FF11DE35AFF4F21
:10043000F0829FB7F8940B8FEA89FB8980818062F4
:10044000CFCFCF93DF93EC01888D8823B9F0AA89B1
:10045000BB89E889F9898C9185FD03C0808186FD7F
:100460000DC00FB607FCF7CF8C9185FFF2CF8081CE
:1004700085FFEDCFCE010E94B201E9CFDF91CF9190
:100480000895FC018081869F080E80E0811D808395
:100490008181869F080E80E0811D81838281869FF5
:1004A000080E80E0811D82831124CF010895AF9250
:1004B000BF92CF92DF92EF92FF920F931F93CF9351
:1004C000DF9300D01F92CDB7DEB75A0119821A828E
:1004D0001B82882361F18B01E1E0F0E0E82EF12C32
:1004E000D8012D918D012223F1F06F01B1E0CB1ADB
:1004F000D108D501AC0DBD1D4C914423A1F030E0D5
:100500002F5F3F4FD7010E941513A42FB0E0119623
:100510009B01AC010E94E012A1E0B0E0AC0FBD1F56
:10052000AC0DBD1D8C933196E430F105C9F669819F
:100530007A818B810F900F900F90DF91CF911F9157
:100540000F91FF90EF90DF90CF90BF90AF90089504
:1005500081E090E008950F931F93CF93DF93209154
:100560007B012F5F322F377030937B0120FF2BC030
:1005700020E831FD2064347009F02062205FFC0126
:10058000EC01239600E011E06785662329F070E016
:10059000C8010E9438136F5F6187822F869F080E03
:1005A00080E0811D1124811110C01682662311F094
:1005B000615061873196EC17FD0731F7DF91CF91DC
:1005C0001F910F91089520E0D4CF81508683EECF04
:1005D0004F925F927F928F929F92AF92BF92CF92F3
:1005E000DF92EF92FF920F931F93CF93DF932C0133
:1005F000EB010E940001F20126893789621B730B0F
:100600006A307105B0F3F8948A819B811816190637
:100610000CF0CBC1E881F98105B1086075B1777F35
:1006200075B9BA848F812B2D281B822F2F834C857F
:10063000042E000C550BAA81BB81E888DF84C98891
:10064000E394D394C3949E81388599848B841181DB
:1006500020E0F32E622F322F31811127889431113F
:10066000380F08F43FEF81958894E0FC130F17953D
:100670008894E1FC130F17958894E2FC130F1795EB
:100680008894E3FC130F17958894E4FC130F1795D7
:100690008894E5FC130F17958894E6FC130F1795C3
:1006A0008894E7FC130F17958894232FE110212FCE
:1006B0008B0D122F002C05B900C017FF75B93081C2
:1006C0002227889400C000C0002C75B93111390F61
:1006D00000C0002C05B900C016FF75B908F43FEF43
:1006E0009195889400C000C0002C75B9D0FC230FF0
:1006F00000C0002C05B900C015FF75B92795889476
:10070000D1FC230F00C000C0002C75B92795889438
:1007100000C0002C05B900C014FF75B9D2FC230F2E
:100720002795889400C000C0002C75B9D3FC230F16
:1007300000C0002C05B900C013FF75B92795889437
:10074000D4FC230F00C000C0002C75B927958894F5
:1007500000C0002C05B900C012FF75B9D5FC230FED
:100760002795889400C000C0002C75B9D6FC230FD3
:1007700000C0002C05B900C011FF75B927958894F9
:10078000D7FC230F00C000C0002C75B927958894B2
:1007900000C0002C05B900C010FF75B9132FD1108F
:1007A000122F990D00C000C0002C75B900C000C008
:1007B000002C05B900C017FF75B932812227889433
:1007C00000C000C0002C75B931113F0D00C0002CD5
:1007D00005B900C016FF75B908F43FEFE40FF51F27
:1007E00000C000C0002C75B9C0FC230F00C0002C55
:1007F00005B900C015FF75B927958894C1FC230F72
:1008000000C000C0002C75B92795889400C0002C4A
:1008100005B900C014FF75B9C2FC230F2795889451
:1008200000C000C0002C75B9C3FC230F00C0002C11
:1008300005B900C013FF75B927958894C4FC230F30
:1008400000C000C0002C75B92795889400C0002C0A
:1008500005B900C012FF75B9C5FC230F2795889410
:1008600000C000C0002C75B9C6FC230F00C0002CCE
:1008700005B900C011FF75B927958894C7FC230FEF
:1008800000C000C0002C75B92795889400C0002CCA
:1008900005B900C010FF75B9132FC110122FF194C4
:1008A00000C000C0002C75B9F80C00C000C005B92C
:1008B00000C017FF75B931812227889400C000C09D
:1008C000002C75B93111380F00C0002C05B900C0DB
:1008D00016FF75B908F43FEF8195889400C000C0F9
:1008E000002C75B9E0FC230F00C0002C05B900C036
:1008F00015FF75B927958894E1FC230F00C000C04F
:10090000002C75B92795889400C0002C05B900C04B
:1009100014FF75B9E2FC230F2795889400C000C02E
:10092000002C75B9E3FC230F00C0002C05B900C0F2
:1009300013FF75B927958894E4FC230F00C000C00D
:10094000002C75B92795889400C0002C05B900C00B
:1009500012FF75B9E5FC230F2795889400C000C0ED
:10096000002C75B9E6FC230F00C0002C05B900C0AF
:1009700011FF75B927958894E7FC230F00C000C0CC
:10098000002C75B92795889400C0002C05B900C0CB
:1009900010FF75B9132FE110122F8B0D00C000C08E
:1009A000002C75B9119709F086CEEA81FB812EE102
:1009B00030E0DF010E94541330E020E0A901AAE9F1
:1009C000EA9F0E0E411DFA9F400D511D11244F0F3D
:1009D000511DDC01CB01840F951FA11DB11D893E66
:1009E00043E09407A105B10508F434C0885E934044
:1009F000A109B10942E0B695A795979587954A95C3
:100A0000D1F747E0849F080E211D949F200D311DD2
:100A10001124290F311D60917A0170E0860F971F14
:100A2000820F931F4091BF015091C0016091C1019D
:100A30007091C201292F3327420F531F611D711D71
:100A40004093BF015093C0016093C1017093C201F4
:100A500080937A0178940E940001F201778B668B73
:100A6000DF91CF911F910F91FF90EF90DF90CF908A
:100A7000BF90AF909F908F907F905F904F90089520
:100A8000239A08956F927F928F92CF92DF92EF9286
:100A9000FF920F931F93CF93DF93CDB7DEB762978B
:100AA0000FB6F894DEBF0FBECDBF8C016B017A018B
:100AB000822FA801475F5F4FB8016A5F7F4F0E9496
:100AC00057023B01882ED8011C962C91C701F7FED6
:100AD00004C0882799278E199F09DA82C9829C83CE
:100AE0008B839E838D83688A798A8A8A213049F52F
:100AF000CE0101960E94AB0283E08D871F861E8681
:100B0000F7FE02C08DEF8D87D801ED91FC91008832
:100B1000F189E02DBE016F5F7F4FC8010995629694
:100B20000FB6F894DEBF0FBECDBFDF91CF911F91FE
:100B30000F91FF90EF90DF90CF908F907F906F900C
:100B400008951C861B861A86198618861F82D4CFA4
:100B5000CF92DF92EF92FF920F931F93CF93DF9389
:100B6000CDB7DEB762970FB6F894DEBF0FBECDBF2C
:100B70008C016B017A01822FA801475F5F4FB8019A
:100B80006A5F7F4F0E9457029B01482FD8011C9635
:100B90008C91DA82C982FC82EB82FE82ED82288B04
:100BA000398B4A8B813009F5CE0101960E94AB0248
:100BB0001D861F861E86D801ED91FC910088F18963
:100BC000E02DBE016F5F7F4FC801099562960FB699
:100BD000F894DEBF0FBECDBFDF91CF911F910F9173
:100BE000FF90EF90DF90CF9008951C861B861A86A9
:100BF000198618861F82DCCF0895CF93DF938FEF7D
:100C00008093060180930701809308018093090176
:100C100080930A0180930B012091A401C0EAD1E0E6
:100C2000AEE5B1E080E0281751F0E9919D910E2EDC
:100C3000000CFF0BEA5FFE4F90838F5FF4CFDF91D4
:100C4000CF910895E82F809100019091010197FFC5
:100C500004C01092A4010C94FD054091A4018436B7
:100C6000910534F123E02093A40121E020935E015B
:100C70002AE030E0B9010E943813F82FCB01B90106
:100C80000E94381380935F01F09360012091A401CA
:100C9000E11102C02417F9F296E0921BE0EAF1E0BC
:100CA00080E02817C1F2382F390F31938F5FF9CFC9
:100CB0008A30910564F022E02093A4016AE070E09C
:100CC0000E94381360935E0180935F01DFCF91E053
:100CD0009093A40180935E01D9CFEF92FF920F937E
:100CE0001F93CF93DF937C010FE010E0C3E0D0E0CF
:100CF000B701002E02C0769567950A94E2F76170FD
:100D00008EE00E94B40061E081E10E94B400CE0157
:100D10000197F1F760E081E10E94B400CE010197F4
:100D2000F1F70150110920F761E08FE00E94B40053
:100D30002197F1F760E08FE0DF91CF911F910F9144
:100D4000FF90EF900C94B4005F926F927F928F921D
:100D50009F92AF92BF92CF92DF92EF92FF920F934A
:100D60001F93CF93DF934B015C010E9425016B0120
:100D70007C0166246394712C0E9425016C197D0905
:100D80008E099F09681579058A059B0598F5C6E0C7
:100D9000D1E002E411E089918A3028F5930102C084
:100DA000220F331F8A95E2F7C9010E946D06F801F0
:100DB000508061E0852D0E94B400809104019091E3
:100DC00005018230910538F0880F991F880F991F0F
:100DD00005970197F1F760E0852D0E94B40090E03F
:100DE00080E00E946D060F5F1F4FF1E0CC30DF07FF
:100DF00091F6C2CFDF91CF911F910F91FF90EF90AD
:100E0000DF90CF90BF90AF909F908F907F906F902A
:100E10005F90089590E080E00895FC016487089554
:100E2000FC01848590E00895FC01868597850895EE
:100E3000FF920F931F93CF93DF93EC01F62E6E85F5
:100E40007F85E881F9810284F385E02D09958C0185
:100E50008D85882361F04E855F856A817B81E8817D
:100E6000F9810280F381E02D2F2DCE010995E881D3
:100E7000F9810484F585E02DB801CE01DF91CF9191
:100E80001F910F91FF900994CF93DF9300D01F9291
:100E9000CDB7DEB719821A821B82CE0101960E945D
:100EA0008700809100019091010184369105B4F092
:100EB000198280E88A831B82CE0101960E948700F6
:100EC000609103018091A5019091A6010E941807ED
:100ED0000F900F900F90DF91CF91089597FDF0CF75
:100EE000489669E170E00E943813662339F080E883
:100EF00090E0633030F48FEF623011F061E080E019
:100F00009FEFE7ECF1E020E09083818312822F5F76
:100F100033962613F9CFD4CFCF92DF92EF92FF9280
:100F20000F931F93CF93DF93209161013091620162
:100F30002333310514F022E330E0A0EABFEF0E9432
:100F40004C1322E330E040E050E00E94C112205AEE
:100F5000D22FDD0FDD0FDD0F35E5CD2FC39F0C0E3A
:100F6000C0E0C11D1124922F9074822F807227FD42
:100F700050C091113AC0811106C09C2F9095FC2E53
:100F8000C92FD0E005C035E5F32EFC0ED0E0CBEA4A
:100F9000009100011091010120E017FD0BC020E637
:100FA00030E0D8010E94541324E630E040E050E0E5
:100FB0000E94C112322F330F330F330F95E5832F69
:100FC000899F080E80E0811D1124522F5074422FFA
:100FD000407227FD9AC0511186C041113CC0982F24
:100FE0009095282F892F90E03AC081110CC09AEA81
:100FF000D99F0D0ED0E0D11D11249BEA9D1B2AEA3A
:10100000F22EFC0EBDCF80E0FC2EF094DC2FC0E071
:10101000BFCF911111C081110BC08AEAD89F0D0E6C
:10102000D0E0D11D11248BEAF82EFD1ADB5AEFCF48
:10103000DC2FD095F12CACCF811106C095E59C0F2B
:10104000DBEADC1BC92FF6CF8AEA8C0F90E0D32FA6
:10105000DC1BC82FEFCF25E5280F90E08BEAC0936B
:10106000CD01F092CE01D093CF01C090CD01D090B0
:10107000CE01E090CF01C092CA01D092CB01E092A4
:10108000CC01C092C701D092C801E092C9010436D8
:1010900011050CF459C08093D0012093D101909395
:1010A000D2018093D6012093D7019093D8018091EB
:1010B000D6019091D701A091D8018093D30190934C
:1010C000D401A093D501609103018091A501909175
:1010D000A601DF91CF911F910F91FF90EF90DF90CC
:1010E000CF900C94180741110AC02AEA329F030ED0
:1010F00030E0311D11249BEA931B280F73CF90E041
:10110000282F2095982F80E0AACF511111C04111AE
:101110000BC0932F8AEA989F090E90E0911D11242D
:101120002BEA291B9B5AEFCF982F909520E097CF61
:10113000411106C025E5280F9BEA981B822FF6CFA8
:101140002AEA280F30E0F9CF1092D0011092D10195
:101150001092D201A6CF282F86FD2095E22FEF73A3
:101160002F7086FD2F5FE695E695E695E670F0E038
:10117000E05FFE4F9181929F902D212D1124929539
:101180009F702295207F922B2081920F87FD919551
:1011900080E8890F08950E9461132F923F924F9229
:1011A0005F926F927F928F929F92AF92BF92CF92F7
:1011B000DF92EF92FF920F931F93CF93DF93CDB700
:1011C000DEB7C254D1090FB6F894DEBF0FBECDBF53
:1011D00046E051E05EAF4DAF8E010F5C1F4FD8016E
:1011E000FA0181918D9351E0EC30F507D1F7F12CA4
:1011F00024EF2F0DF801A6E0B1E08F2D87FF00C18D
:1012000090819D93825031968213F8CF66E970E009
:1012100080E090E00E94A406F39484E1F812E8CF05
:101220000E9425012B013C01DE0111962196BFAFE2
:10123000AEAF21976E01BDE3CB0ED11C46E0242E4C
:1012400041E0342EFE0179962396FFAFEEAF23974F
:10125000AE01495C5F4F7A015CEB852E52E0952E22
:10126000A12CB12CD701E9E0ED937D010E94691218
:10127000A50194010E94C11260577E4F8F4F9F4F6E
:101280002196AEADBFAD21976D937D938D939D93C8
:101290002196BFAFAEAF2197640D751D861D971DBA
:1012A0002396EEADFFAD2397619371938193919354
:1012B0002396FFAFEEAF2397D101E9E0ED931D0137
:1012C000EC14FD0479F60E9425014B015C01FE013E
:1012D0007996AE01495C5F4F1A0190E080E0F12CF5
:1012E000D1012D911D01222371F140805180628036
:1012F000738084149504A604B70418F12150BD012D
:1013000061507109DB012C93BC01660F771F660FDA
:10131000771F41E050E04C0F5D1F640F751FDB012C
:101320004D915D916D917C91440D551D661D771D0C
:101330004083518362837383AC014A5F5E4FDA015D
:101340002C93FF24F394019634968630910541F650
:101350006EE170E080E090E00E94A406F110B3CF4F
:1013600060E971E080E090E00E94A406F12CE12C9D
:101370004801B6E08B0E911CE6E0F1E05801D50182
:101380008D915D018A3008F041C090E0E816F906C1
:101390000CF4C70181938A149B0489F760E570E01F
:1013A00080E090E00E94A406BFEFEB1AFB0AEAE09F
:1013B000EE16F10409F7D8018D918D01EDADFEAD6A
:1013C0008193FEAFEDAFAA16BB06A9F7CE5BDF4F48
:1013D0000FB6F894DEBF0FBECDBFDF91CF911F9146
:1013E0000F91FF90EF90DF90CF90BF90AF909F90C4
:1013F0008F907F906F905F904F903F902F900895C7
:10140000982F8A300CF4FDCE99E0FBCE8FEFC2CF3F
:101410002F923F924F925F926F927F928F929F9204
:10142000AF92BF92CF92DF92EF92FF920F931F93F2
:10143000CF93DF9300D000D01F92CDB7DEB744E644
:10144000F42E5AE0C52ED12C64E6262E312C71E400
:10145000472E512C612C712C89ED91E00E94920154
:10146000892B09F46AC289ED91E00E947001E09134
:1014700079018A3009F055C2AE2FB0E0AD59BE4FA8
:101480001C9289EF8E0F833038F0EC3029F08DEE0E
:101490008E0F823008F088C1A3E6B1E08D918053B1
:1014A0008A3008F060C189E691E08A179B07B1F79E
:1014B000509169018DEB850F823008F054C1809105
:1014C0006301082E000C990BC097F89E8001F99ECD
:1014D000100D112480916401082E000C990BC09707
:1014E0004AE0489F9001499F300D1124020F131FBD
:1014F00080916501082E000C990BC097080F191FE9
:10150000E02EA12E053611051CF034E6E32EA12CA9
:10151000E0920001A0920101E83008F427C1809117
:101520006A0190ED980F9A3008F020C1892F9CE154
:10153000899F802D112480930301B12CE93088F11B
:10154000BB24B39480916B01813309F0B12CEC3052
:1015500040F120916C01022E000C330B2053310915
:10156000F29EC001F39E900D112420916D01022E78
:10157000000C330B205331094AE0429FB001439FD6
:10158000700D1124860F971F20916E01022E000C02
:10159000330B20533109820F931F90936201809384
:1015A000610160916601409167012091680190E0BE
:1015B00080E05434F1F4062E000C770B605371096F
:1015C000F69EC001F79E900D1124042E000C550BC1
:1015D000405351093AE0349FB001359F700D1124FA
:1015E000860F971F022E000C330B20533109820FF8
:1015F000931F9093AB018093AA01E33108F46FC06D
:1016000081E090916F01953409F080E08093A90109
:1016100020917001022E000C330B20533109F29EF1
:10162000C001F39E900D112420917101022E000C37
:10163000330B205331094AE0429FB001439F700DA4
:101640001124860F971F20917201022E000C330B7C
:1016500020533109820F931F9093A8018093A70113
:1016600020917301022E000C330B20533109F29E9E
:10167000C001F39E900D112420917401022E000CE4
:10168000330B20533109429FB001439F700D112449
:10169000860F971F20917501022E000C330B2053EB
:1016A0003109820F931F9093AD018093AC01E33118
:1016B000B1F08091760190ED980F9A3080F4082E69
:1016C000000C990BC0974AEF489F9001499F300D3D
:1016D0001124285A3D4F3093050120930401B09204
:1016E000B9016B2D83E00E94B40091E0B91258C09B
:1016F0008FEF8093090180930A0180930B01209161
:10170000610130916201283E83E038078CF56FEF6C
:101710002436310524F0C901B1010E9438136093C9
:101720000601C901B6010E943813282FCB01B6016A
:101730000E94381380930701209308010436110595
:10174000D4F081E08093090110920A0110920B01FC
:101750008091B401811107C08091B901813009F0F5
:10176000C6C00E948C071092790176CE8FEFE3CE2F
:1017700027EE33E0D0CF17FDEBCF6FEF0A30110526
:101780002CF08E2D9A2DB6010E94381360930A0119
:101790008E2D9A2DB6010E94381380930B01D8CF5D
:1017A00080E00E942206D4CFE13009F0A9C08091E8
:1017B0006301883509F09EC00E9425014B015C0140
:1017C0000E942501681979098A099B09683B7B40B9
:1017D0008105910510F50E942501681979098A098A
:1017E0009B09A30192010E94F312E6E0F1E030E0D0
:1017F00026503140C9018E0F9F1FB6010E94381339
:1018000081938CE091E08E179F07A1F761E470E06F
:1018100080E090E00E94A406D3CF809100019091D7
:1018200001019D838C8310E000E01093010100937F
:10183000000181E00E9422060E9444076DE270E0F0
:1018400080E090E00E94A4060F5F1F4F053611054F
:1018500061F760EB74E080E090E00E94A4060E94D3
:1018600025014B015C0101E010E0EE24EA940E94A6
:101870002501681979098A099B09683B7B40810524
:10188000910560F5E9821A821B82CE0101960E94C1
:101890008700812F012E000C990BFC01EE0FFF1F1A
:1018A000E80FF91FE953FE4F10821182E282609126
:1018B00003018091A5019091A6010E94180760EA9A
:1018C00070E080E090E00E94A406100F153024F430
:1018D00011166CF201E0CBCF0FEFC9CF8C819D8147
:1018E000909301018093000181E00E9422060E94F2
:1018F000440739CF833509F036CF0E94CD0833CF66
:10190000E23009F030CF80916301813409F02BCFB0
:10191000809164018053853008F025CF8093B40115
:1019200019CFE53108F01FCF91E09E0F9093790118
:10193000F0E0ED59FE4F80838FCD0F900F900F9008
:101940000F900F90DF91CF911F910F91FF90EF902B
:10195000DF90CF90BF90AF909F908F907F906F90CF
:101960005F904F903F902F9008951F920F920FB667
:101970000F9211242F933F938F939F93AF93BF9315
:101980008091BF019091C001A091C101B091C201AD
:101990003091BE0123E0230F2D3758F50196A11D8C
:1019A000B11D2093BE018093BF019093C001A0930D
:1019B000C101B093C2018091C3019091C401A09173
:1019C000C501B091C6010196A11DB11D8093C3014F
:1019D0009093C401A093C501B093C601BF91AF918C
:1019E0009F918F913F912F910F900FBE0F901F905D
:1019F000189526E8230F0296A11DB11DD2CF1F9284
:101A00000F920FB60F9211242F933F934F935F9332
:101A10006F937F938F939F93AF93BF93EF93FF93B6
:101A200089ED91E00E94B201FF91EF91BF91AF91DA
:101A30009F918F917F916F915F914F913F912F91E6
:101A40000F900FBE0F901F9018951F920F920FB618
:101A50000F9211242F938F939F93EF93FF93E09115
:101A6000E901F091EA018081E091EF01F091F0014C
:101A700082FD1BC090818091F2018F5F8F73209156
:101A8000F301821741F0E091F201F0E0E752FE4FDE
:101A9000958F8093F201FF91EF919F918F912F91FC
:101AA0000F900FBE0F901F9018958081F4CFE9ED35
:101AB000F1E01382128288EE93E0A0E0B0E084832C
:101AC0009583A683B7838CE491E09183808385EC32
:101AD00090E09587848784EC90E09787868780ECF8
:101AE00090E0918B808B81EC90E0938B828B82ECE9
:101AF00090E0958B848B86EC90E0978B868B118E93
:101B0000128E138E148EE6E7F2E08FEF808312823E
:101B10001182148613868FEF9FEFDC0187839087F5
:101B2000A187B28713821482158216820895CF93FB
:101B3000DF9300D000D000D0CDB7DEB7789484B565
:101B4000826084BD84B5816084BD85B5826085BDB9
:101B500085B5816085BD80916E00816080936E0047
:101B60001092810080918100826080938100809139
:101B700081008160809381008091800081608093EA
:101B800080008091B10084608093B1008091B000AA
:101B900081608093B00080917A00846080937A00A5
:101BA00080917A00826080937A0080917A008160CF
:101BB00080937A0080917A00806880937A001092F6
:101BC000C100E091E901F091EA0182E08083E091B7
:101BD000E901F091EA011082E091E501F091E6015E
:101BE0001082E091E701F091E80180E1808310929A
:101BF000F101E091ED01F091EE0186E08083E0914A
:101C0000EB01F091EC01808180618083E091EB0138
:101C1000F091EC01808188608083E091EB01F0918C
:101C2000EC01808180688083E091EB01F091EC0110
:101C300080818F7D80838EE00E94950081E10E94EB
:101C400095008FE00E94950060E08EE00E94B40055
:101C500060E081E10E94B40060E08FE00E94B40087
:101C600080E10E94950060E080E10E94B40083E082
:101C70000E94950060E083E00E94B40058E4C52E05
:101C800051E0D52E02E411E0F801F1908F018F2D83
:101C90000E94950060E08F2D0E94B400C016D1060E
:101CA00099F790E080E00E946D068FEF91E09093AD
:101CB000870080938600109289001092880082E845
:101CC0008093800089E180938100219A10E000E0F8
:101CD00010938900009388000E9400014B015C0171
:101CE00044E1C42ED12CE12CF12C0E940001681992
:101CF00079098A099B09683E734081059105A8F31B
:101D0000F1E0CF1AD108E108F10828EE820E23E0B5
:101D1000921EA11CB11CC114D104E104F10429F7E5
:101D20000F5F1F4F013441E0140791F68091980135
:101D3000811157C010928301109282018FEF80931E
:101D40008601809387018093880180938901809325
:101D50008A0180938B0181E080938C0180938D01B7
:101D600010928F0110928E0180E797E1909391017C
:101D70008093900183E090E090939301809392018F
:101D80001092950110929401109285011092840195
:101D900080917E0190917F01892B31F480E891E060
:101DA00090937F0180937E01E0917C01F0917D0111
:101DB000309721F080E891E09583848380E891E07A
:101DC00090937D0180937C0110929701109296016F
:101DD00080E391E0909381018093800181E0809382
:101DE0009801239A87EC91E090938301809382017C
:101DF00086E090E090938F0180938E01809179022C
:101E000090917A02A0917B02B0917C02843C59E0CF
:101E10009507A105B10520F484EC99E0A0E0B0E0BD
:101E20008093790290937A02A0937B02B0937C0214
:101E300080E891E09093A6018093A50119821A820F
:101E40001B82CE0101960E9487006FEF80E891E02F
:101E50000E94180786E480937C0080917A00806459
:101E600080937A0080917A0086FDFCCFC090780044
:101E7000D09079000D2C000CEE08FF080E940001A4
:101E80008B019C01C701B601602771278227932728
:101E9000C016D106E206F30611F00E94B8120E94A5
:101EA00025016093BA017093BB018093BC019093AC
:101EB000BD016093B5017093B6018093B701909313
:101EC000B801AA24AA940E94080A0E9425016B0165
:101ED0007C018091BA019091BB01A091BC01B091AD
:101EE000BD0197018601081B190B2A0B3B0BD90179
:101EF000C801803C9742A940B10508F45FC0C09278
:101F0000BA01D092BB01E092BC01F092BD010E94E7
:101F1000CD081091B401112309F445C28091B0019C
:101F20009091B101A091B201B091B301A7019601C6
:101F3000281B390B4A0B5B0BDA01C9018897A105F5
:101F4000B10508F430C2C092B001D092B101E09264
:101F5000B201F092B30119821A821B82CE0101965E
:101F60000E948700113009F0BBC007EC11E0F12C92
:101F700030E8E32E8091AE019091AF019695879560
:101F8000969587958F0D0E94AB08F8011082E1822B
:101F90001282843108F484E1682FC8010E94410252
:101FA000F6EDFF0E0D5F1F4F24E0F212E3CF6091BC
:101FB00003018091A5019091A60122C14091B90130
:101FC0004111A7CF8091B5019091B601A091B701C1
:101FD000B091B80197018601081B190B2A0B3B0B26
:101FE000D901C80188389341A105B10508F491CF02
:101FF000C092B501D092B601E092B701F092B8015B
:10200000F091A401FF2309F484CFE09102017090C4
:10201000A301BB24B3948091A00118160CF0B12C3D
:102020000F2F10E0480121E0821A9108272D072C7C
:10203000000C330BE7FF28C0C9010196B8010E94CC
:102040003813772009F449C0D901A056BE4F6C91CE
:10205000062E000C770B615071091197AC910A2E76
:10206000000CBB0BA617B707FCF091E0940F782E7D
:10207000F91308C0E195E0930201E7FD40E04093C9
:10208000A30147CF492FD2CFC801820F931F0197D9
:10209000B8010E943813D901A056BE4F6C91821628
:1020A000930669F465300CF78093A301D901A0561B
:1020B000BE4F8C91E80FEC930E94FD052ACF062EAF
:1020C000000C770B6F5F7F4F1196AC910A2E000CBE
:1020D000BB0B6A177B0744F3C8CFBB2031F2E4CFB8
:1020E000123079F58091AE019091AF01A5E09695FF
:1020F0008795AA95E1F769E070E00E942413E82E25
:1021000007EC11E0F12CB0E8DB2EEF1498F08E2DE7
:102110008F19843078F4F8011082D1821282880FEE
:102120006FEF70E002C0759567958A95E2F7C80178
:102130000E944102F3940D5F1F4FF6E0FF12E5CFBE
:1021400036CF1330C9F48091AE019091AF01F6E023
:1021500096958795FA95E1F78770E7ECF1E090E0C6
:1021600020E8891709F423CF1082218312829F5F10
:1021700033969630B1F71BCF143009F018CF009189
:10218000AC011091AD018090AA019090AB018091BB
:10219000A9016090A7017090A801882311F0712C0B
:1021A000612CC401092C000CAA0BBB0B6801012E89
:1021B000000CEE08FF08C80ED91EEA1EFB1EC30164
:1021C000072C000CAA0BBB0BC80ED91EEA1EFB1E67
:1021D0002091A5013091A6013E832D83309103010A
:1021E0003C831C141D041E041F04B4F019821A82BF
:1021F0001B82CE0101960E9487006C818D819E8199
:102200000E9418078091AE019091AF0108969093BB
:10221000AF018093AE01C7C026E030E0D8010E9434
:102220005413160127015594479437942794620D4F
:10223000731D841D951DA70196010E94C112B22E27
:1022400026E030E0D4010E945413620D731D841DFA
:10225000951DA70196010E94C1121016110624F4C3
:10226000B11002C0BB24B394181419041CF421113A
:1022700001C021E04B2D420F5527551F4730510516
:102280002CF02B1588F586E0B82EB21A90E01614C3
:10229000170424F48B2D820F96E0981B07EC11E0B5
:1022A000F80180E0B81223C053E0859FF0011124AB
:1022B000E953FE4F280F281323C043E0849FF00109
:1022C0001124E953FE4F980F981322C053E0859FC5
:1022D000F0011124E953FE4F863018F58F5F10820C
:1022E000118212823396F8CF26E02B19CFCF863099
:1022F000D9F28F5FA08234EB318312823396D2CF32
:102300008630D8F68F5F1082A18212823396D3CFA7
:102310008630E0F68F5F20EA20831182A282339616
:10232000D3CFB12C8091AE019091AF019695879556
:10233000969587958B0D0E94AB08863408F486E449
:10234000682FC8010E94410236EDB30E0D5F1F4F8A
:1023500044E0B412E7CF6C818D819E810E94180702
:10236000A7019601253631054105510524F024E6E3
:1023700030E040E050E0A6E1B0E00E94E01224E648
:1023800030E040E050E00E94C1122E5F3F4F4F4FBF
:102390005F4F8091AE019091AF01280F391F3093AC
:1023A000AF012093AE0106E011E03CE0C32E31E026
:1023B000D32E42E4E42E41E0F42EF80181918F0106
:1023C0008A3030F521E030E002C0220F331F8A95B9
:1023D000E2F7C9010E946D06F701B08061E08B2D24
:1023E0000E94B40080910401909105018230910512
:1023F00038F0880F991F880F991F05970197F1F7FB
:1024000060E08B2D0E94B40090E080E00E946D0699
:10241000FFEFEF1AFF0AC016D10679F60E94080AEC
:1024200080E090E0892B09F44ECD0E949E01882324
:1024300009F449CD0E94000046CD8F929F92AF9241
:10244000BF92CF92DF92EF92FF92CF93DF93EC0196
:10245000688179818A819B8161157105810591056A
:1024600021F464E279ED8BE597E02DE133EF41E073
:1024700050E00E94C11249015A019B01AC01A7EA38
:10248000B1E40E94E0126B017C01ACEEB4EFA50157
:1024900094010E94EE12C60ED71EE81EF91EF7FE2A
:1024A00006C081E0C81AD108E10880E8F80AC882AD
:1024B000D982EA82FB82C701B6019F77DF91CF9173
:1024C000FF90EF90DF90CF90BF90AF909F908F9054
:1024D00008958F929F92AF92BF92CF92DF92EF9228
:1024E000FF9260910C0170910D0180910E0190910D
:1024F0000F01611571058105910521F464E279ED03
:102500008BE597E02DE133EF41E050E00E94C112EE
:1025100049015A019B01AC01A7EAB1E40E94E01213
:102520006B017C01ACEEB4EFA50194010E94EE12A8
:10253000C60ED71EE81EF91EF7FE06C081E0C81AB7
:10254000D108E10880E8F80AC0920C01D0920D0190
:10255000E0920E01F0920F01C701B6019F77FF9044
:10256000EF90DF90CF90BF90AF909F908F900895A5
:1025700060930C0170930D0180930E0190930F01F5
:102580000895052E97FB1EF400940E94D81257FD63
:1025900007D00E94F31207FC03D04EF40C94D8121B
:1025A00050954095309521953F4F4F4F5F4F08957F
:1025B00090958095709561957F4F8F4F9F4F0895AF
:1025C0000E941513A59F900DB49F900DA49F800DA0
:1025D000911D11240895B7FF0C94E0120E94E0129F
:1025E000821B930B0895A1E21A2EAA1BBB1BFD01AF
:1025F0000DC0AA1FBB1FEE1FFF1FA217B307E407E2
:10260000F50720F0A21BB30BE40BF50B661F771F39
:10261000881F991F1A9469F7609570958095909519
:102620009B01AC01BD01CF010895A29FB001B39FF2
:10263000C001A39F700D811D1124911DB29F700DCB
:10264000811D1124911D0895AA1BBB1B51E107C0D8
:10265000AA1FBB1FA617B70710F0A61BB70B881F32
:10266000991F5A95A9F780959095BC01CD010895C1
:1026700097FB072E16F4009407D077FD09D00E942F
:10268000241307FC05D03EF4909581959F4F089543
:10269000709561957F4F08950E941513332312F4AE
:1026A0008A1B9B0B0C9456130E941513B7FF0895B9
:1026B000821B930B0895EE0FFF1F0590F491E02D00
:1026C000099481E090E0F8940C946613F894FFCF9D
:1026D000FFFFFFFFF00AFFFFFFFFFFFF0100000009
:1026E000003131295A1B750A00000000CB08CB08C5
:1026F000CB081407A80210070D070A070000000006
:10270000A805420540051407A80210070D0731016E
:10271000E8020A080706050400000000D40134019D
:0A27200061012102920170018401A1
:107E0000112484B714BE81FFF0D085E080938100F7
:107E100082E08093C00088E18093C10086E0809377
:107E2000C20080E18093C4008EE0C9D0259A86E02C
:107E300020E33CEF91E0309385002093840096BBD3
:107E4000B09BFECF1D9AA8958150A9F7CC24DD24C4
:107E500088248394B5E0AB2EA1E19A2EF3E0BF2EE7
:107E6000A2D0813461F49FD0082FAFD0023811F036
:107E7000013811F484E001C083E08DD089C08234E0
:107E800011F484E103C0853419F485E0A6D080C0E4
:107E9000853579F488D0E82EFF2485D0082F10E0AE
:107EA000102F00270E291F29000F111F8ED06801E7
:107EB0006FC0863521F484E090D080E0DECF843638
:107EC00009F040C070D06FD0082F6DD080E0C81688
:107ED00080E7D80618F4F601B7BEE895C0E0D1E017
:107EE00062D089930C17E1F7F0E0CF16F0E7DF06D8
:107EF00018F0F601B7BEE89568D007B600FCFDCFD4
:107F0000A601A0E0B1E02C9130E011968C91119780
:107F100090E0982F8827822B932B1296FA010C0160
:107F200087BEE89511244E5F5F4FF1E0A038BF0790
:107F300051F7F601A7BEE89507B600FCFDCF97BE46
:107F4000E89526C08437B1F42ED02DD0F82E2BD052
:107F50003CD0F601EF2C8F010F5F1F4F84911BD097
:107F6000EA94F801C1F70894C11CD11CFA94CF0C13
:107F7000D11C0EC0853739F428D08EE10CD085E9AC
:107F80000AD08FE07ACF813511F488E018D01DD067
:107F900080E101D065CF982F8091C00085FFFCCF94
:107FA0009093C60008958091C00087FFFCCF809118
:107FB000C00084FD01C0A8958091C6000895E0E648
:107FC000F0E098E1908380830895EDDF803219F02E
:107FD00088E0F5DFFFCF84E1DECF1F93182FE3DFCA
:107FE0001150E9F7F2DF1F91089580E0E8DFEE27F6
:047FF000FF270994CA
:027FFE00040479
:00000001FF
