:020000040000FA
:100000000C945D000C9485000C9485000C94850084
:100010000C9485000C9485000C9485000C9485004C
:100020000C9485000C9485000C9485000C9485003C
:100030000C9485000C9485000C9485000C9485002C
:100040000C945F0B0C9485000C94CF0B0C94A90BB3
:100050000C9485000C9485000C9485000C9485000C
:100060000C9485000C94850000000008000201003B
:100070000003040700000000000000000000000072
:10008000250028002B0000000000240027002A0083
:10009000040404040404040402020202020203032E
:1000A0000303030301020408102040800102040836
:1000B0001020010204081020010C11241FBECFEFF4
:1000C000D8E0DEBFCDBF22E0A4E5B1E001C01D92C3
:1000D000A138B207E1F711E0A0E0B1E0E0ECF2E214
:1000E00002C005900D92A435B107D9F710E0CDE517
:1000F000D0E004C02197FE010E945311CC35D107F6
:10010000C9F70E94410C0C945E110C940000E5ECC0
:10011000F1E0DC012D913D914C912193319341937C
:10012000B1E0E73DFB07A9F7089590E0FC01EC552D
:10013000FF4F249180579F4FFC018491882399F0B1
:1001400090E0880F991FFC01EA57FF4FA591B491E9
:10015000FC01E458FF4F859194918FB7F894EC918E
:10016000E22BEC938FBF089590E0FC01E859FF4F1C
:100170002491FC01EC55FF4F3491FC01E057FF4FF7
:10018000E491EE23C9F0222339F0233001F1A8F4E1
:10019000213019F1223029F1F0E0EE0FFF1FE45871
:1001A000FF4FA591B4918FB7F894EC91611126C0DF
:1001B00030953E233C938FBF08952730A9F0283017
:1001C000C9F0243049F7809180008F7D03C0809171
:1001D00080008F7780938000DFCF84B58F7784BDD8
:1001E000DBCF84B58F7DFBCF8091B0008F7780937C
:1001F000B000D2CF8091B0008F7DF9CF3E2BDACF07
:100200003FB7F8948091C1019091C201A091C301C0
:10021000B091C40126B5A89B05C02F3F19F00196E7
:10022000A11DB11D3FBFBA2FA92F982F8827BC0150
:10023000CD01620F711D811D911D42E0660F771F78
:10024000881F991F4A95D1F708952FB7F8946091A8
:10025000BD017091BE018091BF019091C0012FBF7F
:10026000089580E991E00895AF92BF92CF92DF9216
:10027000EF92FF920F931F93CF93DF936C017B015B
:100280008B01040F151FEB015E01AE18BF08C017EC
:10029000D10759F06991D601ED91FC910190F0815F
:1002A000E02DC6010995892B79F7C501DF91CF9122
:1002B0001F910F91FF90EF90DF90CF90BF90AF9084
:1002C0000895FC01538D448D252F30E0842F90E05C
:1002D000821B930B541710F0CF9608950197089541
:1002E000FC01918D828D981761F0A28DAE0FBF2F0A
:1002F000B11D5D968C91928D9F5F9F73928F90E060
:1003000008958FEF9FEF0895FC01918D828D9817CE
:1003100031F0828DE80FF11D858D90E008958FEF0B
:100320009FEF0895FC01918D228D892F90E0805CD4
:100330009F4F821B91098F739927089587ED91E054
:100340000E94920121E0892B09F420E0822F089578
:1003500080E090E0892B29F00E949E0181110C948D
:1003600000000895FC01A48DA80FB92FB11DA35A58
:10037000BF4F2C91848D90E001968F739927848FC5
:10038000A689B7892C93A089B1898C9183708064E8
:100390008C93938D848D981306C00288F389E02D89
:1003A00080818F7D80830895EF92FF920F931F933A
:1003B000CF93DF93EC0181E0888F9B8D8C8D981318
:1003C0001AC0E889F989808185FF15C09FB7F89424
:1003D000EE89FF896083E889F98980818370806470
:1003E00080839FBF81E090E0DF91CF911F910F91BB
:1003F000FF90EF900895F62E0B8D10E00F5F1F4FCA
:100400000F731127E02E8C8D8E110CC00FB607FCD8
:10041000FACFE889F989808185FFF5CFCE010E9466
:10042000B201F1CFEB8DEC0FFD2FF11DE35AFF4F21
:10043000F0829FB7F8940B8FEA89FB8980818062F4
:10044000CFCFCF93DF93EC01888D8823B9F0AA89B1
:10045000BB89E889F9898C9185FD03C0808186FD7F
:100460000DC00FB607FCF7CF8C9185FFF2CF8081CE
:1004700085FFEDCFCE010E94B201E9CFDF91CF9190
:100480000895FC018081869F080E80E0811D808395
:100490008181869F080E80E0811D81838281869FF5
:1004A000080E80E0811D82831124CF010895AF9250
:1004B000BF92CF92DF92EF92FF920F931F93CF9351
:1004C000DF9300D01F92CDB7DEB75A0119821A828E
:1004D0001B82882361F18B01E1E0F0E0E82EF12C32
:1004E000D8012D918D012223F1F06F01B1E0CB1ADB
:1004F000D108D501AC0DBD1D4C914423A1F030E0D5
:100500002F5F3F4FD7010E943211A42FB0E0119608
:100510009B01AC010E944811A1E0B0E0AC0FBD1FEF
:10052000AC0DBD1D8C933196E430F105C9F669819F
:100530007A818B810F900F900F90DF91CF911F9157
:100540000F91FF90EF90DF90CF90BF90AF90089504
:1005500081E090E008950F931F93CF93DF93209154
:1005600074012F5F322F37703093740120FF2BC03E
:1005700020E831FD2064347009F02062205FFC0126
:10058000EC01239600E011E06785662329F070E016
:10059000C8010E94D5106F5F6187822F869F080E69
:1005A00080E0811D1124811110C01682662311F094
:1005B000615061873196EC17FD0731F7DF91CF91DC
:1005C0001F910F91089520E0D4CF81508683EECF04
:1005D0004F925F927F928F929F92AF92BF92CF92F3
:1005E000DF92EF92FF920F931F93CF93DF932C0133
:1005F000EB010E940001F20126893789621B730B0F
:100600006A307105B0F3F8948A819B811816190637
:100610000CF0CBC1E881F98105B1086075B1777F35
:1006200075B9BA848F812B2D281B822F2F834C857F
:10063000042E000C550BAA81BB81E888DF84C98891
:10064000E394D394C3949E81388599848B841181DB
:1006500020E0F32E622F322F31811127889431113F
:10066000380F08F43FEF81958894E0FC130F17953D
:100670008894E1FC130F17958894E2FC130F1795EB
:100680008894E3FC130F17958894E4FC130F1795D7
:100690008894E5FC130F17958894E6FC130F1795C3
:1006A0008894E7FC130F17958894232FE110212FCE
:1006B0008B0D122F002C05B900C017FF75B93081C2
:1006C0002227889400C000C0002C75B93111390F61
:1006D00000C0002C05B900C016FF75B908F43FEF43
:1006E0009195889400C000C0002C75B9D0FC230FF0
:1006F00000C0002C05B900C015FF75B92795889476
:10070000D1FC230F00C000C0002C75B92795889438
:1007100000C0002C05B900C014FF75B9D2FC230F2E
:100720002795889400C000C0002C75B9D3FC230F16
:1007300000C0002C05B900C013FF75B92795889437
:10074000D4FC230F00C000C0002C75B927958894F5
:1007500000C0002C05B900C012FF75B9D5FC230FED
:100760002795889400C000C0002C75B9D6FC230FD3
:1007700000C0002C05B900C011FF75B927958894F9
:10078000D7FC230F00C000C0002C75B927958894B2
:1007900000C0002C05B900C010FF75B9132FD1108F
:1007A000122F990D00C000C0002C75B900C000C008
:1007B000002C05B900C017FF75B932812227889433
:1007C00000C000C0002C75B931113F0D00C0002CD5
:1007D00005B900C016FF75B908F43FEFE40FF51F27
:1007E00000C000C0002C75B9C0FC230F00C0002C55
:1007F00005B900C015FF75B927958894C1FC230F72
:1008000000C000C0002C75B92795889400C0002C4A
:1008100005B900C014FF75B9C2FC230F2795889451
:1008200000C000C0002C75B9C3FC230F00C0002C11
:1008300005B900C013FF75B927958894C4FC230F30
:1008400000C000C0002C75B92795889400C0002C0A
:1008500005B900C012FF75B9C5FC230F2795889410
:1008600000C000C0002C75B9C6FC230F00C0002CCE
:1008700005B900C011FF75B927958894C7FC230FEF
:1008800000C000C0002C75B92795889400C0002CCA
:1008900005B900C010FF75B9132FC110122FF194C4
:1008A00000C000C0002C75B9F80C00C000C005B92C
:1008B00000C017FF75B931812227889400C000C09D
:1008C000002C75B93111380F00C0002C05B900C0DB
:1008D00016FF75B908F43FEF8195889400C000C0F9
:1008E000002C75B9E0FC230F00C0002C05B900C036
:1008F00015FF75B927958894E1FC230F00C000C04F
:10090000002C75B92795889400C0002C05B900C04B
:1009100014FF75B9E2FC230F2795889400C000C02E
:10092000002C75B9E3FC230F00C0002C05B900C0F2
:1009300013FF75B927958894E4FC230F00C000C00D
:10094000002C75B92795889400C0002C05B900C00B
:1009500012FF75B9E5FC230F2795889400C000C0ED
:10096000002C75B9E6FC230F00C0002C05B900C0AF
:1009700011FF75B927958894E7FC230F00C000C0CC
:10098000002C75B92795889400C0002C05B900C0CB
:1009900010FF75B9132FE110122F8B0D00C000C08E
:1009A000002C75B9119709F086CEEA81FB812EE102
:1009B00030E0DF010E94411130E020E0A901AAE906
:1009C000EA9F0E0E411DFA9F400D511D11244F0F3D
:1009D000511DDC01CB01840F951FA11DB11D893E66
:1009E00043E09407A105B10508F434C0885E934044
:1009F000A109B10942E0B695A795979587954A95C3
:100A0000D1F747E0849F080E211D949F200D311DD2
:100A10001124290F311D6091730170E0860F971F1B
:100A2000820F931F4091BD015091BE016091BF01A3
:100A30007091C001292F3327420F531F611D711D73
:100A40004093BD015093BE016093BF017093C001FC
:100A50008093730178940E940001F201778B668B7A
:100A6000DF91CF911F910F91FF90EF90DF90CF908A
:100A7000BF90AF909F908F907F905F904F90089520
:100A8000239A08956F927F928F92CF92DF92EF9286
:100A9000FF920F931F93CF93DF93CDB7DEB762978B
:100AA0000FB6F894DEBF0FBECDBF8C016B017A018B
:100AB000822FA801475F5F4FB8016A5F7F4F0E9496
:100AC00057023B01882ED8011C962C91C701F7FED6
:100AD00004C0882799278E199F09DA82C9829C83CE
:100AE0008B839E838D83688A798A8A8A213049F52F
:100AF000CE0101960E94AB0283E08D871F861E8681
:100B0000F7FE02C08DEF8D87D801ED91FC91008832
:100B1000F189E02DBE016F5F7F4FC8010995629694
:100B20000FB6F894DEBF0FBECDBFDF91CF911F91FE
:100B30000F91FF90EF90DF90CF908F907F906F900C
:100B400008951C861B861A86198618861F82D4CFA4
:100B5000CF92DF92EF92FF920F931F93CF93DF9389
:100B6000CDB7DEB762970FB6F894DEBF0FBECDBF2C
:100B70008C016B017A01822FA801475F5F4FB8019A
:100B80006A5F7F4F0E9457029B01482FD8011C9635
:100B90008C91DA82C982FC82EB82FE82ED82288B04
:100BA000398B4A8B813009F5CE0101960E94AB0248
:100BB0001D861F861E86D801ED91FC910088F18963
:100BC000E02DBE016F5F7F4FC801099562960FB699
:100BD000F894DEBF0FBECDBFDF91CF911F910F9173
:100BE000FF90EF90DF90CF9008951C861B861A86A9
:100BF000198618861F82DCCF08958FEF8093070136
:100C0000809308018093090120915B0130915C0180
:100C1000283E83E038074CF56FEF243631052CF081
:100C2000C90164E670E00E94D51060930401EAE017
:100C3000F0E0C901BF010E94D510282FCB01BF01F0
:100C40000E94D51080930501209306012091000198
:100C500030910101243631055CF081E08093070179
:100C60001092080110920901089527EE33E0D8CFC1
:100C700037FD11C06FEF2A30310524F0C901BF01E3
:100C80000E94D51060930801C9016AE070E00E94DB
:100C9000D510809309010895CF93DF938FEF809350
:100CA00004018093050180930601809307018093DE
:100CB00008018093090120919D01C9E9D1E0A8E5CF
:100CC000B1E080E0281751F0E9919D910E2E000CC3
:100CD000FF0BEC5FFE4F90838F5FF4CFDF91CF91DE
:100CE0000895E82F809100019091010197FF04C0C1
:100CF00010929D010C944C0640919D018436910503
:100D000034F123E020939D0121E0209358012AE053
:100D100030E0B9010E94D510F82FCB01B9010E9433
:100D2000D51080935901F0935A0120919D01E11152
:100D300002C02417F9F296E0921BE9E9F1E080E0A5
:100D40002817C1F2382F390F31938F5FF9CF8A30CE
:100D5000910564F022E020939D016AE070E00E941A
:100D6000D5106093580180935901DFCF91E09093A3
:100D70009D0180935801D9CFEF92FF920F931F935B
:100D8000CF93DF937C010FE010E0C3E0D0E0B70128
:100D9000002E02C0769567950A94E2F761708EE0A6
:100DA0000E94B40061E081E10E94B400CE0101978D
:100DB000F1F760E081E10E94B400CE010197F1F704
:100DC0000150110920F761E08FE00E94B4002197E3
:100DD000F1F760E08FE0DF91CF911F910F91FF90CD
:100DE000EF900C94B4003F924F925F926F927F927B
:100DF0008F929F92AF92BF92CF92DF92EF92FF922B
:100E00000F931F93CF93DF934B015C010E94250149
:100E10006B017C0144244394512C9BEB692E9BE293
:100E2000792E0E9425016C197D098E099F0968158C
:100E300079058A059B0540F5C4E0D1E00CE311E09B
:100E400089918A30D0F4920102C0220F331F8A9513
:100E5000E2F7C9010E94BC06F801308061E0832DF1
:100E60000E94B400C3010197F1F760E0832D0E9456
:100E7000B40090E080E00E94BC060F5F1F4FF1E0DD
:100E8000CA30DF07E9F6CDCFDF91CF911F910F91E7
:100E9000FF90EF90DF90CF90BF90AF909F908F909A
:100EA0007F906F905F904F903F90089590E080E02A
:100EB0000895FC0164870895FC01848590E00895FD
:100EC000FC01868597850895FF920F931F93CF931A
:100ED000DF93EC01F62E6E857F85E881F98102842F
:100EE000F385E02D09958C018D85882361F04E8571
:100EF0005F856A817B81E881F9810280F381E02D41
:100F00002F2DCE010995E881F9810484F585E02D26
:100F1000B801CE01DF91CF911F910F91FF900994FD
:100F2000CF93DF9300D01F92CDB7DEB719821A821C
:100F30001B82CE0101960E94870080910001909152
:100F4000010184369105B4F0198280E88A831B82FE
:100F5000CE0101960E9487006091030180919E015D
:100F600090919F010E9464070F900F900F90DF9166
:100F7000CF91089597FDF0CF489669E170E00E9407
:100F8000D510662339F080E890E0633030F48FEFBD
:100F9000623011F061E080E09FEFE5ECF1E020E0ED
:100FA0009083818312822F5F33962613F9CFD4CF9B
:100FB000CF92DF92EF92FF920F931F93CF93DF9325
:100FC00020915B0130915C012333310514F022E361
:100FD00030E0A0EABFEF0E942A1122E330E040E0B7
:100FE00050E00E940B11205AD22FDD0FDD0FDD0FD4
:100FF00035E5CD2FC39F0C0EC0E0C11D1124922FEB
:101000009074822F807227FD50C091113AC08111D7
:1010100006C09C2F9095FC2EC92FD0E005C035E569
:10102000F32EFC0ED0E0CBEA0091000110910101FB
:1010300020E017FD0BC020E630E0D8010E944111EE
:1010400024E630E040E050E00E940B11322F330FD5
:10105000330F330F95E5832F899F080E80E0811DA4
:101060001124522F5074422F407227FD9AC0511103
:1010700086C041113CC0982F9095282F892F90E071
:101080003AC081110CC09AEAD99F0D0ED0E0D11D53
:1010900011249BEA9D1B2AEAF22EFC0EBDCF80E0B4
:1010A000FC2EF094DC2FC0E0BFCF911111C0811154
:1010B0000BC08AEAD89F0D0ED0E0D11D11248BEA17
:1010C000F82EFD1ADB5AEFCFDC2FD095F12CACCFE8
:1010D000811106C095E59C0FDBEADC1BC92FF6CF1A
:1010E0008AEA8C0F90E0D32FDC1BC82FEFCF25E5C9
:1010F000280F90E08BEAC093CB01F092CC01D09303
:10110000CD01C090CB01D090CC01E090CD01C09238
:10111000C801D092C901E092CA01C092C501D09223
:10112000C601E092C701043611050CF459C0809342
:10113000CE012093CF019093D0018093D4012093CE
:10114000D5019093D6018091D4019091D501A091C1
:10115000D6018093D1019093D201A093D3016091E5
:10116000030180919E0190919F01DF91CF911F918A
:101170000F91FF90EF90DF90CF900C946407411196
:101180000AC02AEA329F030E30E0311D11249BEA87
:10119000931B280F73CF90E0282F2095982F80E085
:1011A000AACF511111C041110BC0932F8AEA989F09
:1011B000090E90E0911D11242BEA291B9B5AEFCFB9
:1011C000982F909520E097CF411106C025E5280F74
:1011D0009BEA981B822FF6CF2AEA280F30E0F9CF3E
:1011E0001092CE011092CF011092D001A6CF3F9263
:1011F0004F925F926F927F928F929F92AF92BF9227
:10120000CF92DF92EF92FF920F931F93CF93DF93D2
:1012100000D000D01F92CDB7DEB714E60AE031E46B
:10122000432E512C612C712C4AE0C42ED12C87ED19
:1012300091E00E949201892B09F408C287ED91E0A8
:101240000E947001E09172018A3009F0F3C1AE2F63
:10125000B0E0A35ABE4F1C9289EF8E0F833028F066
:10126000EC3019F0E33109F024C1ADE5B1E08D9126
:1012700080538A3008F014C183E691E08A179B07F7
:10128000B1F7509163018DEB850F823008F008C1F2
:1012900020915D01022E000C330B20533109129F67
:1012A000C001139F900D112420915E01022E000CAD
:1012B000330B20533109029FB001039F700D11249D
:1012C000860F971F20915F01022E000C330B2053D5
:1012D0003109820F931F8536910514F084E690E062
:1012E0009093010180930001E83008F4DCC0809104
:1012F000640190ED980F9A3008F0D5C0892F9CE1D9
:10130000899F802D112480930301F12CE93080F115
:10131000FF24F39480916501813309F0F12CEC30C6
:1013200038F120916601022E000C330B2053310955
:10133000129FC001139F900D112420916701022E6E
:10134000000C330B20533109029FB001039F700D35
:101350001124860F971F20916801022E000C330B79
:1013600020533109820F931F90935C0180935B019E
:1013700060916001409161012091620190E080E004
:101380005434E9F4062E000C770B60537109169F54
:10139000C001179F900D1124042E000C550B4053D3
:1013A0005109049FB001059F700D1124860F971FEE
:1013B000022E000C330B20533109820F931F9093A0
:1013C000A4018093A301E33108F456C081E0909119
:1013D0006901953409F080E08093A20120916A01AF
:1013E000022E000C330B20533109129FC001139FB2
:1013F000900D112420916B01022E000C330B205311
:101400003109029FA001039F500D1124840F951FE5
:1014100020916C01022E000C330B20533109820FF6
:10142000931F9093A1018093A00120916D01022E42
:10143000000C330B20533109129FC001139F900DF4
:10144000112420916E01022E000C330B2053310920
:10145000029FA001039F500D1124840F951F20911E
:101460006F01022E000C330B20533109820F931FA2
:101470009093A6018093A501F092B6016F2D83E0B1
:101480000E94B40091E0F91210C00E94FD05809105
:10149000AD01811105C021E0F212B2C00E94D8074F
:1014A00010927201C4CE8FEF2ECF80E00E947106A1
:1014B000EECFE13009F0A7C080915D01883581F75A
:1014C0000E9425014B015C010E94250168197909E0
:1014D0008A099B09683B7B408105910508F50E94BC
:1014E0002501681979098A099B09A30192010E94C3
:1014F000E910E4E0F1E030E024503140C9018E0F02
:101500009F1FB6010E94D510819381E0EA30F80751
:10151000A9F761E470E080E090E00E94F306D4CF88
:1015200080910001909101019D838C83F12CE12C2D
:10153000F0920101E092000181E00E9471060E9498
:1015400090076DE270E080E090E00E94F3069FEF6C
:10155000E91AF90A25E6E216F10451F760EB74E0A6
:1015600080E090E00E94F3060E9425014B015C019F
:10157000EE24E394F12C33243A940E942501681957
:1015800079098A099B09683B7B408105910578F5BB
:1015900039821A821B82CE0101960E9487008F2D0C
:1015A0000F2C000C990BFC01EE0FFF1FE80FF91F29
:1015B000EB53FE4F108211823282609103018091C1
:1015C0009E0190919F010E94640760EA70E080E0B4
:1015D00090E00E94F306FE0C84E08F152CF01F149F
:1015E00064F2EE24E394C9CFEE24EA94C6CF8C8152
:1015F0009D81909301018093000181E00E9471061A
:101600000E9490074DCFE23009F04ACF80915D01F2
:10161000813409F045CF80915E018053853008F018
:101620003FCF8093AD0181113BCF8091B6018130D6
:1016300039F734CFE43108F033CF91E09E0F909327
:101640007201F0E0E35AFE4F8083F1CD0F900F90CE
:101650000F900F900F90DF91CF911F910F91FF90FE
:10166000EF90DF90CF90BF90AF909F908F907F9042
:101670006F905F904F903F900895282F86FD2095A2
:10168000E22FEF732F7086FD2F5FE695E695E695C6
:10169000E670F0E0E65FFE4F9181929F902D212D44
:1016A000112492959F702295207F922B2081920F7A
:1016B00087FD919580E8890F08950E9459111F9226
:1016C0000F920FB60F9211242F933F938F939F93F6
:1016D000AF93BF938091BD019091BE01A091BF01D6
:1016E000B091C0013091BC0123E0230F2D3758F594
:1016F0000196A11DB11D2093BC018093BD01909363
:10170000BE01A093BF01B093C0018091C10190912F
:10171000C201A091C301B091C4010196A11DB11DE8
:101720008093C1019093C201A093C301B093C401FF
:10173000BF91AF919F918F913F912F910F900FBECD
:101740000F901F90189526E8230F0296A11DB11D3A
:10175000D2CF1F920F920FB60F9211242F933F9367
:101760004F935F936F937F938F939F93AF93BF93A9
:10177000EF93FF9387ED91E00E94B201FF91EF910B
:10178000BF91AF919F918F917F916F915F914F9199
:101790003F912F910F900FBE0F901F9018951F92A1
:1017A0000F920FB60F9211242F938F939F93EF9365
:1017B000FF93E091E701F091E8018081E091ED0174
:1017C000F091EE0182FD1BC090818091F0018F5F4E
:1017D0008F732091F101821741F0E091F001F0E068
:1017E000E952FE4F958F8093F001FF91EF919F9109
:1017F0008F912F910F900FBE0F901F9018958081A1
:10180000F4CFE7EDF1E01382128288EE93E0A0E0DE
:10181000B0E084839583A683B78386E491E09183C7
:10182000808385EC90E09587848784EC90E09787AF
:10183000868780EC90E0918B808B81EC90E0938B9D
:10184000828B82EC90E0958B848B86EC90E0978B7A
:10185000868B118E128E138E148EE4E7F2E08FEFDA
:10186000808312821182148613868FEF9FEFDC0132
:1018700087839087A187B28713821482158216828C
:101880000895CF93DF9300D000D01F92CDB7DEB77D
:10189000789484B5826084BD84B5816084BD85B54B
:1018A000826085BD85B5816085BD80916E00816057
:1018B00080936E00109281008091810082608093FD
:1018C00081008091810081608093810080918000FF
:1018D0008160809380008091B10084608093B1002A
:1018E0008091B00081608093B00080917A00846024
:1018F00080937A0080917A00826080937A00809150
:101900007A00816080937A0080917A008068809369
:101910007A001092C100E091E701F091E80182E0C5
:101920008083E091E701F091E8011082E091E3010A
:10193000F091E4011082E091E501F091E60180E18F
:1019400080831092EF01E091EB01F091EC0186E0D1
:101950008083E091E901F091EA01808180618083D8
:10196000E091E901F091EA01808188608083E09153
:10197000E901F091EA01808180688083E091E901CA
:10198000F091EA0180818F7D80838EE00E94950036
:1019900081E10E9495008FE00E94950060E08EE05A
:1019A0000E94B40060E081E10E94B40060E08FE03A
:1019B0000E94B40080E10E94950060E080E10E94F6
:1019C000B40083E00E94950060E083E00E94B400D0
:1019D0000CE311E0D801FD908D018F2D0E94950040
:1019E00060E08F2D0E94B400B1E002341B0791F734
:1019F00090E080E00E94BC068FEF91E0909387001A
:101A000080938600109289001092880082E880936B
:101A1000800089E180938100219A10E000E010931A
:101A20008900009388000E9400014B015C01B4E131
:101A3000CB2ED12CE12CF12C0E94000168197909E0
:101A40008A099B09683E734081059105A8F3E1E08E
:101A5000CE1AD108E108F108F8EE8F0EF3E09F1ED0
:101A6000A11CB11CC114D104E104F10429F70F5FDA
:101A70001F4F093131E0130791F6809191018111D7
:101A800057C010927C0110927B018FEF80937F01F1
:101A900080938001809381018093820180938301F0
:101AA0008093840181E08093850180938601109268
:101AB00088011092870180E797E190938A018093D3
:101AC000890183E090E090938C0180938B011092C8
:101AD0008E0110928D0110927E0110927D018091F5
:101AE000770190917801892B31F489E791E0909307
:101AF000780180937701E0917501F091760130973C
:101B000021F089E791E09583848389E791E09093C0
:101B10007601809375011092900110928F018AE2F4
:101B200091E090937A018093790181E08093910113
:101B3000239A85EC91E090937C0180937B0186E071
:101B400090E0909388018093870180917702909133
:101B50007802A0917902B0917A02843C49E094071E
:101B6000A105B10520F484EC99E0A0E0B0E08093F9
:101B7000770290937802A0937902B0937A0289E772
:101B800091E090939F0180939E0119821A821B829B
:101B9000CE0101960E9487006FEF89E791E00E94D5
:101BA00064070E9425016093B2017093B301809392
:101BB000B4019093B5016093AE017093AF0180932F
:101BC000B0019093B10122242394312C0E94F70894
:101BD0000E9425016B017C018091BB01882309F4DF
:101BE00096C08091B7019091B801A091B901B091D0
:101BF000BA0197018601081B190B2A0B3B0BC9017F
:101C0000B80168321AE071078105910508F465C0D2
:101C10001092BB018091B601813009F05AC00E9438
:101C2000FD051091AD01112309F4CBC18091A901EB
:101C30009091AA01A091AB01B091AC01A7019601CE
:101C4000281B390B4A0B5B0BDA01C9018897A105E8
:101C5000B10508F4B6C1C092A901D092AA01E092E0
:101C6000AB01F092AC0119821A821B82CE0101965F
:101C70000E948700113009F004C105EC11E0F12C3D
:101C8000F0E8EF2E8091A7019091A8019695879595
:101C9000969587958F0D0E943D0BD8011C92119649
:101CA000EC92119712961C92843108F484E1682F0B
:101CB000C8010E944102B6EDFB0E0D5F1F4FE4E02C
:101CC000FE12E0CF6091030180919E0190919F01EF
:101CD0006DC181E00E947106A4CF21E430E040E0B4
:101CE00050E00E94E910290104E011E0F0E0E0E09A
:101CF000CF01840D951D6AE070E00E94D510D801D7
:101D00008D938D013196E630F10591F78ACF809160
:101D1000B2019091B301A091B401B091B5019701C6
:101D20008601081B190B2A0B3B0BD901C801803C0B
:101D30009742A940B105A0F081E08093BB01C09219
:101D4000B701D092B801E092B901F092BA01C09205
:101D5000B201D092B301E092B401F092B50161CF2B
:101D60004091B60141115DCF8091AE019091AF01DC
:101D7000A091B001B091B10197018601081B190B28
:101D80002A0B3B0BD901C80188389341A105B10545
:101D900008F447CFC092AE01D092AF01E092B001FB
:101DA000F092B101F0919D01FF2309F43ACFE09147
:101DB000020190909C01BB24B39480919901181664
:101DC0000CF0B12C0F2F10E0380121E0621A7108DD
:101DD000292D092C000C330BC901E7FF27C0019600
:101DE000B8010E94D510992009F448C0D901A7561E
:101DF000BE4F6C91062E000C770B61507109119744
:101E0000AC910A2E000CBB0BA617B707F4F091E0BB
:101E1000940F982EF91308C0E195E0930201E7FDB5
:101E200040E040939C01FDCE492FD2CF800F911FFF
:101E30000197B8010E94D510D901A756BE4F6C91E9
:101E40002615370569F4653014F780939C01D90194
:101E5000A756BE4F8C91E80FEC930E944C06E1CE42
:101E6000062E000C770B6F5F7F4F1196AC910A2EF8
:101E7000000CBB0B6A177B0744F3C9CFBB2039F2B8
:101E8000E4CF123091F58091A7019091A80165E00F
:101E9000969587956A95E1F769E070E00E94C11018
:101EA000E82E05EC11E0F12C70E8D72EEF14B0F01D
:101EB0008E2D8F19843090F4D8011C921196DC92EB
:101EC000119712961C92880F6FEF70E002C0759503
:101ED00067958A95E2F7C8010E944102F3940D5F6D
:101EE0001F4FB6E0FB12E2CFEDCE1330C9F4809164
:101EF000A7019091A80156E0969587955A95E1F72C
:101F00008770E5ECF1E090E020E8891709F4DACE7B
:101F10001082218312829F5F33969630B1F7D2CE22
:101F2000143009F0CFCE0091A5011091A6011D83B8
:101F30000C83C090A301D090A4018091A201E090F5
:101F4000A001F090A101882311F0F12CE12CC60131
:101F50000D2C000CAA0BBB0B0C811D812801110F4D
:101F600066087708840D951DA61DB71DA7010F2CC7
:101F7000000C660B770B2C013D01440E551E661EAE
:101F8000771E14141504160417040CF456C000919F
:101F90009E0110919F01F090030119821A821B8209
:101FA000CE0101960E9487006F2DC8010E94640730
:101FB0008091A7019091A80108969093A801809321
:101FC000A70104E011E08CE3E82E81E0F82EF8018F
:101FD00081918F018A30D8F4910102C0220F331F02
:101FE0008A95E2F7C9010E94BC06D701DC9061E046
:101FF0008D2D0E94B4008BEB9BE20197F1F760E01E
:102000008D2D0E94B40090E080E00E94BC06BFEFDE
:10201000EB1AFB0AE1E00A301E07C9F60E94F70836
:1020200080E090E0892B09F4D1CD0E949E018823A5
:1020300009F4CCCD0E940000C9CD53014201B594F2
:10204000A7949794879426E030E0AC81BD810E94EC
:102050004111680D791D8A1D9B1DA30192010E94EB
:102060000B11122F26E030E0D6010E944111680DBD
:10207000791D8A1D9B1DA30192010E940B114C81A9
:102080005D81141615061CF4111101C011E01C1419
:102090001D041CF4211101C021E0A12FA20FBB27B8
:1020A000BB1F179724F0211798F516E0121B90E03C
:1020B0001E141F0424F4812F820F96E0981B35EC28
:1020C000E32E31E0F32EF70180E0181324C0B3E0D3
:1020D0008B9FF0011124EB53FE4F280F281325C0CE
:1020E00043E0849FF0011124EB53FE4F980F20EA48
:1020F000981324C093E0899FF0011124EB53FE4F05
:10210000863028F58F5F1082118212823396F8CFC5
:1021100026E0211BCCCF8630D1F28F5F0FEF0083FA
:1021200034EB318312823396D0CF8630C8F68F5F7E
:1021300010825FEF518312823396D0CF8630D0F673
:102140008F5F20831182AFEFA2833396D1CF10E04F
:102150008091A7019091A80196958795969587956E
:10216000810F0E943D0B863408F486E4682FC70176
:102170000E9441021A52B3E0EB0EF11C143041F7F9
:10218000A1CDAA1BBB1B51E107C0AA1FBB1FA617ED
:10219000B70710F0A61BB70B881F991F5A95A9F710
:1021A00080959095BC01CD01089597FB072E16F4FC
:1021B000009407D077FD09D00E94C11007FC05D01C
:1021C0003EF4909581959F4F0895709561957F4F4E
:1021D0000895A1E21A2EAA1BBB1BFD010DC0AA1F68
:1021E000BB1FEE1FFF1FA217B307E407F50720F080
:1021F000A21BB30BE40BF50B661F771F881F991FFB
:102200001A9469F760957095809590959B01AC0143
:10221000BD01CF010895052E97FB1EF400940E9486
:10222000221157FD07D00E94E91007FC03D04EF49D
:102230000C94221150954095309521953F4F4F4F6A
:102240005F4F089590958095709561957F4F8F4F62
:102250009F4F08950E943211332312F48A1B9B0B67
:102260000C944311A29FB001B39FC001A39F700DB6
:10227000811D1124911DB29F700D811D1124911D8E
:1022800008950E943211B7FF0895821B930B0895A1
:102290000E943211A59F900DB49F900DA49F800DB8
:1022A000911D11240895EE0FFF1F0590F491E02D6C
:1022B000099481E090E0F8940C945E11F894FFCFBB
:1022C000FFFFFFFFFFFFFFFFFFFF003131295A1B18
:1022D000750A000000005D0B5D0B5D0B6007A80236
:1022E0005C075907560700000000A8054205400595
:1022F0006007A8025C0759073101E8020A080706CF
:10230000050400000000D4013401610121029201A2
:0423100070018401D3
:107E0000112484B714BE81FFF0D085E080938100F7
:107E100082E08093C00088E18093C10086E0809377
:107E2000C20080E18093C4008EE0C9D0259A86E02C
:107E300020E33CEF91E0309385002093840096BBD3
:107E4000B09BFECF1D9AA8958150A9F7CC24DD24C4
:107E500088248394B5E0AB2EA1E19A2EF3E0BF2EE7
:107E6000A2D0813461F49FD0082FAFD0023811F036
:107E7000013811F484E001C083E08DD089C08234E0
:107E800011F484E103C0853419F485E0A6D080C0E4
:107E9000853579F488D0E82EFF2485D0082F10E0AE
:107EA000102F00270E291F29000F111F8ED06801E7
:107EB0006FC0863521F484E090D080E0DECF843638
:107EC00009F040C070D06FD0082F6DD080E0C81688
:107ED00080E7D80618F4F601B7BEE895C0E0D1E017
:107EE00062D089930C17E1F7F0E0CF16F0E7DF06D8
:107EF00018F0F601B7BEE89568D007B600FCFDCFD4
:107F0000A601A0E0B1E02C9130E011968C91119780
:107F100090E0982F8827822B932B1296FA010C0160
:107F200087BEE89511244E5F5F4FF1E0A038BF0790
:107F300051F7F601A7BEE89507B600FCFDCF97BE46
:107F4000E89526C08437B1F42ED02DD0F82E2BD052
:107F50003CD0F601EF2C8F010F5F1F4F84911BD097
:107F6000EA94F801C1F70894C11CD11CFA94CF0C13
:107F7000D11C0EC0853739F428D08EE10CD085E9AC
:107F80000AD08FE07ACF813511F488E018D01DD067
:107F900080E101D065CF982F8091C00085FFFCCF94
:107FA0009093C60008958091C00087FFFCCF809118
:107FB000C00084FD01C0A8958091C6000895E0E648
:107FC000F0E098E1908380830895EDDF803219F02E
:107FD00088E0F5DFFFCF84E1DECF1F93182FE3DFCA
:107FE0001150E9F7F2DF1F91089580E0E8DFEE27F6
:047FF000FF270994CA
:027FFE00040479
:00000001FF
